{
  "_format": "hh-sol-artifact-1",
  "contractName": "BlockchainVoting",
  "sourceName": "contracts/BlockchainVoting.sol",
  "abi": [
    {
      "inputs": [],
      "stateMutability": "nonpayable",
      "type": "constructor"
    },
    {
      "anonymous": false,
      "inputs": [
        {
          "indexed": false,
          "internalType": "uint256",
          "name": "electionId",
          "type": "uint256"
        },
        {
          "indexed": false,
          "internalType": "string",
          "name": "name",
          "type": "string"
        },
        {
          "indexed": false,
          "internalType": "uint256",
          "name": "startTime",
          "type": "uint256"
        },
        {
          "indexed": false,
          "internalType": "uint256",
          "name": "endTime",
          "type": "uint256"
        }
      ],
      "name": "ElectionCreated",
      "type": "event"
    },
    {
      "anonymous": false,
      "inputs": [
        {
          "indexed": false,
          "internalType": "uint256",
          "name": "electionId",
          "type": "uint256"
        },
        {
          "indexed": false,
          "internalType": "uint256[]",
          "name": "results",
          "type": "uint256[]"
        }
      ],
      "name": "ElectionEnded",
      "type": "event"
    },
    {
      "anonymous": false,
      "inputs": [
        {
          "indexed": false,
          "internalType": "uint256",
          "name": "electionId",
          "type": "uint256"
        },
        {
          "indexed": false,
          "internalType": "address",
          "name": "voter",
          "type": "address"
        },
        {
          "indexed": false,
          "internalType": "uint256",
          "name": "candidateId",
          "type": "uint256"
        }
      ],
      "name": "VoteCast",
      "type": "event"
    },
    {
      "anonymous": false,
      "inputs": [
        {
          "indexed": false,
          "internalType": "uint256",
          "name": "electionId",
          "type": "uint256"
        },
        {
          "indexed": false,
          "internalType": "address",
          "name": "voter",
          "type": "address"
        }
      ],
      "name": "VoterRegistered",
      "type": "event"
    },
    {
      "inputs": [],
      "name": "admin",
      "outputs": [
        {
          "internalType": "address",
          "name": "",
          "type": "address"
        }
      ],
      "stateMutability": "view",
      "type": "function"
    },
    {
      "inputs": [
        {
          "internalType": "string",
          "name": "name",
          "type": "string"
        },
        {
          "internalType": "uint256",
          "name": "startTime",
          "type": "uint256"
        },
        {
          "internalType": "uint256",
          "name": "endTime",
          "type": "uint256"
        },
        {
          "internalType": "string[]",
          "name": "candidates",
          "type": "string[]"
        }
      ],
      "name": "createElection",
      "outputs": [],
      "stateMutability": "nonpayable",
      "type": "function"
    },
    {
      "inputs": [],
      "name": "electionCounter",
      "outputs": [
        {
          "internalType": "uint256",
          "name": "",
          "type": "uint256"
        }
      ],
      "stateMutability": "view",
      "type": "function"
    },
    {
      "inputs": [
        {
          "internalType": "uint256",
          "name": "",
          "type": "uint256"
        }
      ],
      "name": "elections",
      "outputs": [
        {
          "internalType": "uint256",
          "name": "id",
          "type": "uint256"
        },
        {
          "internalType": "string",
          "name": "name",
          "type": "string"
        },
        {
          "internalType": "uint256",
          "name": "startTime",
          "type": "uint256"
        },
        {
          "internalType": "uint256",
          "name": "endTime",
          "type": "uint256"
        },
        {
          "internalType": "bool",
          "name": "isActive",
          "type": "bool"
        }
      ],
      "stateMutability": "view",
      "type": "function"
    },
    {
      "inputs": [
        {
          "internalType": "uint256",
          "name": "electionId",
          "type": "uint256"
        }
      ],
      "name": "endElection",
      "outputs": [],
      "stateMutability": "nonpayable",
      "type": "function"
    },
    {
      "inputs": [
        {
          "internalType": "uint256",
          "name": "electionId",
          "type": "uint256"
        }
      ],
      "name": "getCandidates",
      "outputs": [
        {
          "internalType": "string[]",
          "name": "",
          "type": "string[]"
        }
      ],
      "stateMutability": "view",
      "type": "function"
    },
    {
      "inputs": [
        {
          "internalType": "uint256",
          "name": "electionId",
          "type": "uint256"
        }
      ],
      "name": "getElectionDetails",
      "outputs": [
        {
          "internalType": "string",
          "name": "name",
          "type": "string"
        },
        {
          "internalType": "uint256",
          "name": "startTime",
          "type": "uint256"
        },
        {
          "internalType": "uint256",
          "name": "endTime",
          "type": "uint256"
        },
        {
          "internalType": "bool",
          "name": "isActive",
          "type": "bool"
        },
        {
          "internalType": "string[]",
          "name": "candidates",
          "type": "string[]"
        },
        {
          "internalType": "uint256[]",
          "name": "results",
          "type": "uint256[]"
        }
      ],
      "stateMutability": "view",
      "type": "function"
    },
    {
      "inputs": [
        {
          "internalType": "uint256",
          "name": "electionId",
          "type": "uint256"
        }
      ],
      "name": "getResults",
      "outputs": [
        {
          "internalType": "uint256[]",
          "name": "",
          "type": "uint256[]"
        }
      ],
      "stateMutability": "view",
      "type": "function"
    },
    {
      "inputs": [
        {
          "internalType": "uint256",
          "name": "electionId",
          "type": "uint256"
        },
        {
          "internalType": "address",
          "name": "voter",
          "type": "address"
        }
      ],
      "name": "getVoterProfile",
      "outputs": [
        {
          "internalType": "bool",
          "name": "",
          "type": "bool"
        },
        {
          "internalType": "bool",
          "name": "",
          "type": "bool"
        },
        {
          "internalType": "uint256",
          "name": "",
          "type": "uint256"
        }
      ],
      "stateMutability": "view",
      "type": "function"
    },
    {
      "inputs": [
        {
          "internalType": "uint256",
          "name": "electionId",
          "type": "uint256"
        }
      ],
      "name": "getVoters",
      "outputs": [
        {
          "internalType": "address[]",
          "name": "",
          "type": "address[]"
        }
      ],
      "stateMutability": "view",
      "type": "function"
    },
    {
      "inputs": [
        {
          "internalType": "uint256",
          "name": "electionId",
          "type": "uint256"
        }
      ],
      "name": "getVotersWithDetails",
      "outputs": [
        {
          "internalType": "address[]",
          "name": "voterAddresses",
          "type": "address[]"
        },
        {
          "internalType": "bool[]",
          "name": "isRegisteredArray",
          "type": "bool[]"
        },
        {
          "internalType": "bool[]",
          "name": "hasVotedArray",
          "type": "bool[]"
        },
        {
          "internalType": "uint256[]",
          "name": "votesArray",
          "type": "uint256[]"
        }
      ],
      "stateMutability": "view",
      "type": "function"
    },
    {
      "inputs": [
        {
          "internalType": "uint256",
          "name": "electionId",
          "type": "uint256"
        },
        {
          "internalType": "address[]",
          "name": "voters",
          "type": "address[]"
        }
      ],
      "name": "registerMultipleVoters",
      "outputs": [],
      "stateMutability": "nonpayable",
      "type": "function"
    },
    {
      "inputs": [
        {
          "internalType": "uint256",
          "name": "electionId",
          "type": "uint256"
        },
        {
          "internalType": "address",
          "name": "voter",
          "type": "address"
        }
      ],
      "name": "registerVoter",
      "outputs": [],
      "stateMutability": "nonpayable",
      "type": "function"
    },
    {
      "inputs": [
        {
          "internalType": "uint256",
          "name": "electionId",
          "type": "uint256"
        },
        {
          "internalType": "uint256",
          "name": "candidateId",
          "type": "uint256"
        }
      ],
      "name": "vote",
      "outputs": [],
      "stateMutability": "nonpayable",
      "type": "function"
    },
    {
      "stateMutability": "payable",
      "type": "receive"
    }
  ],
  "bytecode": "0x608060405234801561001057600080fd5b50336000806101000a81548173ffffffffffffffffffffffffffffffffffffffff021916908373ffffffffffffffffffffffffffffffffffffffff1602179055506134a9806100606000396000f3fe6080604052600436106100e15760003560e01c80639430e2581161007f578063b384abef11610059578063b384abef14610343578063bc2790471461036c578063f604992414610395578063f851a440146103d757610121565b80639430e258146102b257806394c790bb146102f15780639c98bcbb1461031a57610121565b80635e6fef01116100bb5780635e6fef01146101cc57806361e374171461020d57806381a60c0d1461023857806386b646f21461027557610121565b806317517e05146101265780633b6c37c11461014f5780633e39a7a51461018f57610121565b36610121576040517f08c379a000000000000000000000000000000000000000000000000000000000815260040161011890612de7565b60405180910390fd5b600080fd5b34801561013257600080fd5b5061014d6004803603810190610148919061242d565b610402565b005b34801561015b57600080fd5b50610176600480360381019061017191906123c8565b610707565b6040516101869493929190612c55565b60405180910390f35b34801561019b57600080fd5b506101b660048036038101906101b191906123c8565b610bae565b6040516101c39190612cb6565b60405180910390f35b3480156101d857600080fd5b506101f360048036038101906101ee91906123c8565b610d05565b60405161020495949392919061307e565b60405180910390f35b34801561021957600080fd5b50610222610dd0565b60405161022f9190612f87565b60405180910390f35b34801561024457600080fd5b5061025f600480360381019061025a91906123c8565b610dd6565b60405161026c9190612cd8565b60405180910390f35b34801561028157600080fd5b5061029c600480360381019061029791906123c8565b610fae565b6040516102a99190612c33565b60405180910390f35b3480156102be57600080fd5b506102d960048036038101906102d491906123f1565b6110ba565b6040516102e893929190612cfa565b60405180910390f35b3480156102fd57600080fd5b50610318600480360381019061031391906123f1565b61122a565b005b34801561032657600080fd5b50610341600480360381019061033c91906123c8565b6114c9565b005b34801561034f57600080fd5b5061036a60048036038101906103659190612481565b6117c3565b005b34801561037857600080fd5b50610393600480360381019061038e9190612335565b611ae5565b005b3480156103a157600080fd5b506103bc60048036038101906103b791906123c8565b611cdc565b6040516103ce96959493929190612d31565b60405180910390f35b3480156103e357600080fd5b506103ec611ffb565b6040516103f99190612c18565b60405180910390f35b60008054906101000a900473ffffffffffffffffffffffffffffffffffffffff1673ffffffffffffffffffffffffffffffffffffffff163373ffffffffffffffffffffffffffffffffffffffff1614610490576040517f08c379a000000000000000000000000000000000000000000000000000000000815260040161048790612f47565b60405180910390fd5b8160015481111580156104b85750806002600083815260200190815260200160002060000154145b6104f7576040517f08c379a00000000000000000000000000000000000000000000000000000000081526004016104ee90612e67565b60405180910390fd5b600060026000858152602001908152602001600020905060005b8351811015610700576000848281518110610555577f4e487b7100000000000000000000000000000000000000000000000000000000600052603260045260246000fd5b602002602001015190508260050160008273ffffffffffffffffffffffffffffffffffffffff1673ffffffffffffffffffffffffffffffffffffffff16815260200190815260200160002060000160009054906101000a900460ff16156105f1576040517f08c379a00000000000000000000000000000000000000000000000000000000081526004016105e890612ec7565b60405180910390fd5b60018360050160008373ffffffffffffffffffffffffffffffffffffffff1673ffffffffffffffffffffffffffffffffffffffff16815260200190815260200160002060000160006101000a81548160ff02191690831515021790555082600601819080600181540180825580915050600190039060005260206000200160009091909190916101000a81548173ffffffffffffffffffffffffffffffffffffffff021916908373ffffffffffffffffffffffffffffffffffffffff1602179055507ff45b8429c36d478f9a6d081c4811a819b98aa5b608588bed9d406405cf28247386826040516106e4929190612fa2565b60405180910390a15080806106f89061335e565b915050610511565b5050505050565b6060806060808460015481111580156107355750806002600083815260200190815260200160002060000154145b610774576040517f08c379a000000000000000000000000000000000000000000000000000000000815260040161076b90612e67565b60405180910390fd5b60006002600088815260200190815260200160002090506000816006018054905090508067ffffffffffffffff8111156107d7577f4e487b7100000000000000000000000000000000000000000000000000000000600052604160045260246000fd5b6040519080825280602002602001820160405280156108055781602001602082028036833780820191505090505b5096508067ffffffffffffffff811115610848577f4e487b7100000000000000000000000000000000000000000000000000000000600052604160045260246000fd5b6040519080825280602002602001820160405280156108765781602001602082028036833780820191505090505b5095508067ffffffffffffffff8111156108b9577f4e487b7100000000000000000000000000000000000000000000000000000000600052604160045260246000fd5b6040519080825280602002602001820160405280156108e75781602001602082028036833780820191505090505b5094508067ffffffffffffffff81111561092a577f4e487b7100000000000000000000000000000000000000000000000000000000600052604160045260246000fd5b6040519080825280602002602001820160405280156109585781602001602082028036833780820191505090505b50935060005b81811015610ba35760008360060182815481106109a4577f4e487b7100000000000000000000000000000000000000000000000000000000600052603260045260246000fd5b9060005260206000200160009054906101000a900473ffffffffffffffffffffffffffffffffffffffff16905060008460050160008373ffffffffffffffffffffffffffffffffffffffff1673ffffffffffffffffffffffffffffffffffffffff1681526020019081526020016000209050818a8481518110610a50577f4e487b7100000000000000000000000000000000000000000000000000000000600052603260045260246000fd5b602002602001019073ffffffffffffffffffffffffffffffffffffffff16908173ffffffffffffffffffffffffffffffffffffffff16815250508060000160009054906101000a900460ff16898481518110610ad5577f4e487b7100000000000000000000000000000000000000000000000000000000600052603260045260246000fd5b6020026020010190151590811515815250508060000160019054906101000a900460ff16888481518110610b32577f4e487b7100000000000000000000000000000000000000000000000000000000600052603260045260246000fd5b6020026020010190151590811515815250508060010154878481518110610b82577f4e487b7100000000000000000000000000000000000000000000000000000000600052603260045260246000fd5b60200260200101818152505050508080610b9b9061335e565b91505061095e565b505050509193509193565b6060816001548111158015610bd85750806002600083815260200190815260200160002060000154145b610c17576040517f08c379a0000000000000000000000000000000000000000000000000000000008152600401610c0e90612e67565b60405180910390fd5b60026000848152602001908152602001600020600401805480602002602001604051908101604052809291908181526020016000905b82821015610cf9578382906000526020600020018054610c6c9061332c565b80601f0160208091040260200160405190810160405280929190818152602001828054610c989061332c565b8015610ce55780601f10610cba57610100808354040283529160200191610ce5565b820191906000526020600020905b815481529060010190602001808311610cc857829003601f168201915b505050505081526020019060010190610c4d565b50505050915050919050565b6002602052806000526040600020600091509050806000015490806001018054610d2e9061332c565b80601f0160208091040260200160405190810160405280929190818152602001828054610d5a9061332c565b8015610da75780601f10610d7c57610100808354040283529160200191610da7565b820191906000526020600020905b815481529060010190602001808311610d8a57829003601f168201915b5050505050908060020154908060030154908060080160009054906101000a900460ff16905085565b60015481565b6060816001548111158015610e005750806002600083815260200190815260200160002060000154145b610e3f576040517f08c379a0000000000000000000000000000000000000000000000000000000008152600401610e3690612e67565b60405180910390fd5b60006002600085815260200190815260200160002090508060080160009054906101000a900460ff1615610ea8576040517f08c379a0000000000000000000000000000000000000000000000000000000008152600401610e9f90612e07565b60405180910390fd5b6000816004018054905067ffffffffffffffff811115610ef1577f4e487b7100000000000000000000000000000000000000000000000000000000600052604160045260246000fd5b604051908082528060200260200182016040528015610f1f5781602001602082028036833780820191505090505b50905060005b8260040180549050811015610fa25782600701600082815260200190815260200160002054828281518110610f83577f4e487b7100000000000000000000000000000000000000000000000000000000600052603260045260246000fd5b6020026020010181815250508080610f9a9061335e565b915050610f25565b50809350505050919050565b6060816001548111158015610fd85750806002600083815260200190815260200160002060000154145b611017576040517f08c379a000000000000000000000000000000000000000000000000000000000815260040161100e90612e67565b60405180910390fd5b600260008481526020019081526020016000206006018054806020026020016040519081016040528092919081815260200182805480156110ad57602002820191906000526020600020905b8160009054906101000a900473ffffffffffffffffffffffffffffffffffffffff1673ffffffffffffffffffffffffffffffffffffffff1681526020019060010190808311611063575b5050505050915050919050565b60008060008460015481111580156110e75750806002600083815260200190815260200160002060000154145b611126576040517f08c379a000000000000000000000000000000000000000000000000000000000815260040161111d90612e67565b60405180910390fd5b600060026000888152602001908152602001600020905060008160050160008873ffffffffffffffffffffffffffffffffffffffff1673ffffffffffffffffffffffffffffffffffffffff16815260200190815260200160002090508060000160009054906101000a900460ff166111d3576040517f08c379a00000000000000000000000000000000000000000000000000000000081526004016111ca90612e47565b60405180910390fd5b8060000160009054906101000a900460ff168160000160019054906101000a900460ff168260000160019054906101000a900460ff1661121457600061121a565b82600101545b9550955095505050509250925092565b60008054906101000a900473ffffffffffffffffffffffffffffffffffffffff1673ffffffffffffffffffffffffffffffffffffffff163373ffffffffffffffffffffffffffffffffffffffff16146112b8576040517f08c379a00000000000000000000000000000000000000000000000000000000081526004016112af90612f47565b60405180910390fd5b8160015481111580156112e05750806002600083815260200190815260200160002060000154145b61131f576040517f08c379a000000000000000000000000000000000000000000000000000000000815260040161131690612e67565b60405180910390fd5b60006002600085815260200190815260200160002090508060050160008473ffffffffffffffffffffffffffffffffffffffff1673ffffffffffffffffffffffffffffffffffffffff16815260200190815260200160002060000160009054906101000a900460ff16156113c8576040517f08c379a00000000000000000000000000000000000000000000000000000000081526004016113bf90612ec7565b60405180910390fd5b60018160050160008573ffffffffffffffffffffffffffffffffffffffff1673ffffffffffffffffffffffffffffffffffffffff16815260200190815260200160002060000160006101000a81548160ff02191690831515021790555080600601839080600181540180825580915050600190039060005260206000200160009091909190916101000a81548173ffffffffffffffffffffffffffffffffffffffff021916908373ffffffffffffffffffffffffffffffffffffffff1602179055507ff45b8429c36d478f9a6d081c4811a819b98aa5b608588bed9d406405cf28247384846040516114bb929190612fa2565b60405180910390a150505050565b60008054906101000a900473ffffffffffffffffffffffffffffffffffffffff1673ffffffffffffffffffffffffffffffffffffffff163373ffffffffffffffffffffffffffffffffffffffff1614611557576040517f08c379a000000000000000000000000000000000000000000000000000000000815260040161154e90612f47565b60405180910390fd5b80600154811115801561157f5750806002600083815260200190815260200160002060000154145b6115be576040517f08c379a00000000000000000000000000000000000000000000000000000000081526004016115b590612e67565b60405180910390fd5b60006002600084815260200190815260200160002090508060080160009054906101000a900460ff16611626576040517f08c379a000000000000000000000000000000000000000000000000000000000815260040161161d90612e27565b60405180910390fd5b8060030154421161166c576040517f08c379a000000000000000000000000000000000000000000000000000000000815260040161166390612e87565b60405180910390fd5b60008160080160006101000a81548160ff0219169083151502179055506000816004018054905067ffffffffffffffff8111156116d2577f4e487b7100000000000000000000000000000000000000000000000000000000600052604160045260246000fd5b6040519080825280602002602001820160405280156117005781602001602082028036833780820191505090505b50905060005b82600401805490508110156117835782600701600082815260200190815260200160002054828281518110611764577f4e487b7100000000000000000000000000000000000000000000000000000000600052603260045260246000fd5b602002602001018181525050808061177b9061335e565b915050611706565b507f35a1c053de6c85672294c1aaaea8617367a5f9c313f8543d4552374f783c6ff084826040516117b5929190613002565b60405180910390a150505050565b8160015481111580156117eb5750806002600083815260200190815260200160002060000154145b61182a576040517f08c379a000000000000000000000000000000000000000000000000000000000815260040161182190612e67565b60405180910390fd5b826002600082815260200190815260200160002060080160009054906101000a900460ff1661188e576040517f08c379a000000000000000000000000000000000000000000000000000000000815260040161188590612f07565b60405180910390fd5b600260008281526020019081526020016000206002015442101580156118ca575060026000828152602001908152602001600020600301544211155b611909576040517f08c379a000000000000000000000000000000000000000000000000000000000815260040161190090612dc7565b60405180910390fd5b600060026000868152602001908152602001600020905060008160050160003373ffffffffffffffffffffffffffffffffffffffff1673ffffffffffffffffffffffffffffffffffffffff16815260200190815260200160002090508060000160009054906101000a900460ff166119b6576040517f08c379a00000000000000000000000000000000000000000000000000000000081526004016119ad90612ee7565b60405180910390fd5b8060000160019054906101000a900460ff1615611a08576040517f08c379a00000000000000000000000000000000000000000000000000000000081526004016119ff90612f67565b60405180910390fd5b81600401805490508510611a51576040517f08c379a0000000000000000000000000000000000000000000000000000000008152600401611a4890612f27565b60405180910390fd5b60018160000160016101000a81548160ff0219169083151502179055508481600101819055508160070160008681526020019081526020016000206000815480929190611a9d9061335e565b91905055507f2acce567deca3aabf56327adbb4524bd5318936eaefa69e3a5208ffda0cfec09863387604051611ad593929190612fcb565b60405180910390a1505050505050565b60008054906101000a900473ffffffffffffffffffffffffffffffffffffffff1673ffffffffffffffffffffffffffffffffffffffff163373ffffffffffffffffffffffffffffffffffffffff1614611b73576040517f08c379a0000000000000000000000000000000000000000000000000000000008152600401611b6a90612f47565b60405180910390fd5b818310611bb5576040517f08c379a0000000000000000000000000000000000000000000000000000000008152600401611bac90612da7565b60405180910390fd5b6000815111611bf9576040517f08c379a0000000000000000000000000000000000000000000000000000000008152600401611bf090612ea7565b60405180910390fd5b60016000815480929190611c0c9061335e565b919050555060006002600060015481526020019081526020016000209050600154816000018190555084816001019080519060200190611c4d92919061201f565b5083816002018190555082816003018190555060018160080160006101000a81548160ff02191690831515021790555081816004019080519060200190611c959291906120a5565b507fe7a0aae5d733e07e246dea86213a1ac1b0aa8554bde889bb75c12752f44e53d9600154868686604051611ccd9493929190613032565b60405180910390a15050505050565b60606000806000606080866001548111158015611d0e5750806002600083815260200190815260200160002060000154145b611d4d576040517f08c379a0000000000000000000000000000000000000000000000000000000008152600401611d4490612e67565b60405180910390fd5b6000600260008a815260200190815260200160002090506000816004018054905067ffffffffffffffff811115611dad577f4e487b7100000000000000000000000000000000000000000000000000000000600052604160045260246000fd5b604051908082528060200260200182016040528015611ddb5781602001602082028036833780820191505090505b50905060005b8260040180549050811015611e5e5782600701600082815260200190815260200160002054828281518110611e3f577f4e487b7100000000000000000000000000000000000000000000000000000000600052603260045260246000fd5b6020026020010181815250508080611e569061335e565b915050611de1565b5081600101826002015483600301548460080160009054906101000a900460ff168560040185858054611e909061332c565b80601f0160208091040260200160405190810160405280929190818152602001828054611ebc9061332c565b8015611f095780601f10611ede57610100808354040283529160200191611f09565b820191906000526020600020905b815481529060010190602001808311611eec57829003601f168201915b5050505050955081805480602002602001604051908101604052809291908181526020016000905b82821015611fdd578382906000526020600020018054611f509061332c565b80601f0160208091040260200160405190810160405280929190818152602001828054611f7c9061332c565b8015611fc95780601f10611f9e57610100808354040283529160200191611fc9565b820191906000526020600020905b815481529060010190602001808311611fac57829003601f168201915b505050505081526020019060010190611f31565b50505050915098509850985098509850985050505091939550919395565b60008054906101000a900473ffffffffffffffffffffffffffffffffffffffff1681565b82805461202b9061332c565b90600052602060002090601f01602090048101928261204d5760008555612094565b82601f1061206657805160ff1916838001178555612094565b82800160010185558215612094579182015b82811115612093578251825591602001919060010190612078565b5b5090506120a19190612105565b5090565b8280548282559060005260206000209081019282156120f4579160200282015b828111156120f35782518290805190602001906120e392919061201f565b50916020019190600101906120c5565b5b5090506121019190612122565b5090565b5b8082111561211e576000816000905550600101612106565b5090565b5b8082111561214257600081816121399190612146565b50600101612123565b5090565b5080546121529061332c565b6000825580601f106121645750612183565b601f0160209004906000526020600020908101906121829190612105565b5b50565b600061219961219484613109565b6130d8565b905080838252602082019050828560208602820111156121b857600080fd5b60005b858110156121e857816121ce888261228d565b8452602084019350602083019250506001810190506121bb565b5050509392505050565b600061220561220084613135565b6130d8565b9050808382526020820190508260005b85811015612245578135850161222b88826122f6565b845260208401935060208301925050600181019050612215565b5050509392505050565b600061226261225d84613161565b6130d8565b90508281526020810184848401111561227a57600080fd5b6122858482856132ea565b509392505050565b60008135905061229c81613445565b92915050565b600082601f8301126122b357600080fd5b81356122c3848260208601612186565b91505092915050565b600082601f8301126122dd57600080fd5b81356122ed8482602086016121f2565b91505092915050565b600082601f83011261230757600080fd5b813561231784826020860161224f565b91505092915050565b60008135905061232f8161345c565b92915050565b6000806000806080858703121561234b57600080fd5b600085013567ffffffffffffffff81111561236557600080fd5b612371878288016122f6565b945050602061238287828801612320565b935050604061239387828801612320565b925050606085013567ffffffffffffffff8111156123b057600080fd5b6123bc878288016122cc565b91505092959194509250565b6000602082840312156123da57600080fd5b60006123e884828501612320565b91505092915050565b6000806040838503121561240457600080fd5b600061241285828601612320565b92505060206124238582860161228d565b9150509250929050565b6000806040838503121561244057600080fd5b600061244e85828601612320565b925050602083013567ffffffffffffffff81111561246b57600080fd5b612477858286016122a2565b9150509250929050565b6000806040838503121561249457600080fd5b60006124a285828601612320565b92505060206124b385828601612320565b9150509250929050565b60006124c98383612519565b60208301905092915050565b60006124e183836126c6565b60208301905092915050565b60006124f983836126e4565b905092915050565b600061250d8383612bfa565b60208301905092915050565b612522816132a2565b82525050565b612531816132a2565b82525050565b6000612542826131d1565b61254c818561323c565b935061255783613191565b8060005b8381101561258857815161256f88826124bd565b975061257a83613208565b92505060018101905061255b565b5085935050505092915050565b60006125a0826131dc565b6125aa818561324d565b93506125b5836131a1565b8060005b838110156125e65781516125cd88826124d5565b97506125d883613215565b9250506001810190506125b9565b5085935050505092915050565b60006125fe826131e7565b612608818561325e565b93508360208202850161261a856131b1565b8060005b85811015612656578484038952815161263785826124ed565b945061264283613222565b925060208a0199505060018101905061261e565b50829750879550505050505092915050565b6000612673826131f2565b61267d818561326f565b9350612688836131c1565b8060005b838110156126b95781516126a08882612501565b97506126ab8361322f565b92505060018101905061268c565b5085935050505092915050565b6126cf816132b4565b82525050565b6126de816132b4565b82525050565b60006126ef826131fd565b6126f98185613280565b93506127098185602086016132f9565b61271281613434565b840191505092915050565b6000612728826131fd565b6127328185613291565b93506127428185602086016132f9565b61274b81613434565b840191505092915050565b6000612763602283613291565b91507f53746172742074696d65206d757374206265206265666f726520656e6420746960008301527f6d650000000000000000000000000000000000000000000000000000000000006020830152604082019050919050565b60006127c9602c83613291565b91507f456c656374696f6e206973206e6f742077697468696e2074686520616374697660008301527f652074696d65206672616d6500000000000000000000000000000000000000006020830152604082019050919050565b600061282f602383613291565b91507f5468697320636f6e747261637420646f6573206e6f742061636365707420457460008301527f68657200000000000000000000000000000000000000000000000000000000006020830152604082019050919050565b6000612895601883613291565b91507f456c656374696f6e206973207374696c6c2061637469766500000000000000006000830152602082019050919050565b60006128d5601983613291565b91507f456c656374696f6e20697320616c726561647920656e646564000000000000006000830152602082019050919050565b6000612915603683613291565b91507f5468697320766f746572206973206e6f74207265676973746572656420696e2060008301527f7468652073706563696669656420656c656374696f6e000000000000000000006020830152604082019050919050565b600061297b601783613291565b91507f456c656374696f6e20646f6573206e6f742065786973740000000000000000006000830152602082019050919050565b60006129bb601a83613291565b91507f456c656374696f6e20686173206e6f7420656e646564207965740000000000006000830152602082019050919050565b60006129fb602083613291565b91507f4d7573742068617665206174206c65617374206f6e652063616e6469646174656000830152602082019050919050565b6000612a3b601b83613291565b91507f566f74657220697320616c7265616479207265676973746572656400000000006000830152602082019050919050565b6000612a7b602f83613291565b91507f596f7520617265206e6f74207265676973746572656420746f20766f7465206960008301527f6e207468697320656c656374696f6e00000000000000000000000000000000006020830152604082019050919050565b6000612ae1601683613291565b91507f456c656374696f6e206973206e6f7420616374697665000000000000000000006000830152602082019050919050565b6000612b21601483613291565b91507f496e76616c69642063616e6469646174652049440000000000000000000000006000830152602082019050919050565b6000612b61602183613291565b91507f4f6e6c792061646d696e2063616e2063616c6c20746869732066756e6374696f60008301527f6e000000000000000000000000000000000000000000000000000000000000006020830152604082019050919050565b6000612bc7601683613291565b91507f596f75206861766520616c726561647920766f746564000000000000000000006000830152602082019050919050565b612c03816132e0565b82525050565b612c12816132e0565b82525050565b6000602082019050612c2d6000830184612528565b92915050565b60006020820190508181036000830152612c4d8184612537565b905092915050565b60006080820190508181036000830152612c6f8187612537565b90508181036020830152612c838186612595565b90508181036040830152612c978185612595565b90508181036060830152612cab8184612668565b905095945050505050565b60006020820190508181036000830152612cd081846125f3565b905092915050565b60006020820190508181036000830152612cf28184612668565b905092915050565b6000606082019050612d0f60008301866126d5565b612d1c60208301856126d5565b612d296040830184612c09565b949350505050565b600060c0820190508181036000830152612d4b818961271d565b9050612d5a6020830188612c09565b612d676040830187612c09565b612d7460608301866126d5565b8181036080830152612d8681856125f3565b905081810360a0830152612d9a8184612668565b9050979650505050505050565b60006020820190508181036000830152612dc081612756565b9050919050565b60006020820190508181036000830152612de0816127bc565b9050919050565b60006020820190508181036000830152612e0081612822565b9050919050565b60006020820190508181036000830152612e2081612888565b9050919050565b60006020820190508181036000830152612e40816128c8565b9050919050565b60006020820190508181036000830152612e6081612908565b9050919050565b60006020820190508181036000830152612e808161296e565b9050919050565b60006020820190508181036000830152612ea0816129ae565b9050919050565b60006020820190508181036000830152612ec0816129ee565b9050919050565b60006020820190508181036000830152612ee081612a2e565b9050919050565b60006020820190508181036000830152612f0081612a6e565b9050919050565b60006020820190508181036000830152612f2081612ad4565b9050919050565b60006020820190508181036000830152612f4081612b14565b9050919050565b60006020820190508181036000830152612f6081612b54565b9050919050565b60006020820190508181036000830152612f8081612bba565b9050919050565b6000602082019050612f9c6000830184612c09565b92915050565b6000604082019050612fb76000830185612c09565b612fc46020830184612528565b9392505050565b6000606082019050612fe06000830186612c09565b612fed6020830185612528565b612ffa6040830184612c09565b949350505050565b60006040820190506130176000830185612c09565b81810360208301526130298184612668565b90509392505050565b60006080820190506130476000830187612c09565b8181036020830152613059818661271d565b90506130686040830185612c09565b6130756060830184612c09565b95945050505050565b600060a0820190506130936000830188612c09565b81810360208301526130a5818761271d565b90506130b46040830186612c09565b6130c16060830185612c09565b6130ce60808301846126d5565b9695505050505050565b6000604051905081810181811067ffffffffffffffff821117156130ff576130fe613405565b5b8060405250919050565b600067ffffffffffffffff82111561312457613123613405565b5b602082029050602081019050919050565b600067ffffffffffffffff8211156131505761314f613405565b5b602082029050602081019050919050565b600067ffffffffffffffff82111561317c5761317b613405565b5b601f19601f8301169050602081019050919050565b6000819050602082019050919050565b6000819050602082019050919050565b6000819050602082019050919050565b6000819050602082019050919050565b600081519050919050565b600081519050919050565b600081519050919050565b600081519050919050565b600081519050919050565b6000602082019050919050565b6000602082019050919050565b6000602082019050919050565b6000602082019050919050565b600082825260208201905092915050565b600082825260208201905092915050565b600082825260208201905092915050565b600082825260208201905092915050565b600082825260208201905092915050565b600082825260208201905092915050565b60006132ad826132c0565b9050919050565b60008115159050919050565b600073ffffffffffffffffffffffffffffffffffffffff82169050919050565b6000819050919050565b82818337600083830152505050565b60005b838110156133175780820151818401526020810190506132fc565b83811115613326576000848401525b50505050565b6000600282049050600182168061334457607f821691505b60208210811415613358576133576133d6565b5b50919050565b6000613369826132e0565b91507fffffffffffffffffffffffffffffffffffffffffffffffffffffffffffffffff82141561339c5761339b6133a7565b5b600182019050919050565b7f4e487b7100000000000000000000000000000000000000000000000000000000600052601160045260246000fd5b7f4e487b7100000000000000000000000000000000000000000000000000000000600052602260045260246000fd5b7f4e487b7100000000000000000000000000000000000000000000000000000000600052604160045260246000fd5b6000601f19601f8301169050919050565b61344e816132a2565b811461345957600080fd5b50565b613465816132e0565b811461347057600080fd5b5056fea26469706673582212206a13cf02e4910ddc3259e5a77b21d73f75bb64d4930b6edf940fe5c31344e4e464736f6c63430008000033",
  "linkReferences": {},
  "deployedLinkReferences": {}
}