{
  "_format": "hh-sol-artifact-1",
  "contractName": "BlockchainVoting",
  "sourceName": "contracts/BlockchainVoting.sol",
  "abi": [
    {
      "inputs": [],
      "stateMutability": "nonpayable",
      "type": "constructor"
    },
    {
      "anonymous": false,
      "inputs": [
        {
          "indexed": false,
          "internalType": "uint256",
          "name": "electionId",
          "type": "uint256"
        },
        {
          "indexed": false,
          "internalType": "string",
          "name": "name",
          "type": "string"
        },
        {
          "indexed": false,
          "internalType": "uint256",
          "name": "startTime",
          "type": "uint256"
        },
        {
          "indexed": false,
          "internalType": "uint256",
          "name": "endTime",
          "type": "uint256"
        }
      ],
      "name": "ElectionCreated",
      "type": "event"
    },
    {
      "anonymous": false,
      "inputs": [
        {
          "indexed": false,
          "internalType": "uint256",
          "name": "electionId",
          "type": "uint256"
        },
        {
          "indexed": false,
          "internalType": "uint256[]",
          "name": "results",
          "type": "uint256[]"
        }
      ],
      "name": "ElectionEnded",
      "type": "event"
    },
    {
      "anonymous": false,
      "inputs": [
        {
          "indexed": false,
          "internalType": "uint256",
          "name": "electionId",
          "type": "uint256"
        },
        {
          "indexed": false,
          "internalType": "address",
          "name": "voter",
          "type": "address"
        },
        {
          "indexed": false,
          "internalType": "uint256",
          "name": "candidateId",
          "type": "uint256"
        }
      ],
      "name": "VoteCast",
      "type": "event"
    },
    {
      "anonymous": false,
      "inputs": [
        {
          "indexed": false,
          "internalType": "uint256",
          "name": "electionId",
          "type": "uint256"
        },
        {
          "indexed": false,
          "internalType": "address",
          "name": "voter",
          "type": "address"
        }
      ],
      "name": "VoterRegistered",
      "type": "event"
    },
    {
      "inputs": [],
      "name": "admin",
      "outputs": [
        {
          "internalType": "address",
          "name": "",
          "type": "address"
        }
      ],
      "stateMutability": "view",
      "type": "function"
    },
    {
      "inputs": [
        {
          "internalType": "string",
          "name": "name",
          "type": "string"
        },
        {
          "internalType": "uint256",
          "name": "startTime",
          "type": "uint256"
        },
        {
          "internalType": "uint256",
          "name": "endTime",
          "type": "uint256"
        },
        {
          "internalType": "string[]",
          "name": "candidates",
          "type": "string[]"
        }
      ],
      "name": "createElection",
      "outputs": [],
      "stateMutability": "nonpayable",
      "type": "function"
    },
    {
      "inputs": [],
      "name": "electionCounter",
      "outputs": [
        {
          "internalType": "uint256",
          "name": "",
          "type": "uint256"
        }
      ],
      "stateMutability": "view",
      "type": "function"
    },
    {
      "inputs": [
        {
          "internalType": "uint256",
          "name": "",
          "type": "uint256"
        }
      ],
      "name": "elections",
      "outputs": [
        {
          "internalType": "uint256",
          "name": "id",
          "type": "uint256"
        },
        {
          "internalType": "string",
          "name": "name",
          "type": "string"
        },
        {
          "internalType": "uint256",
          "name": "startTime",
          "type": "uint256"
        },
        {
          "internalType": "uint256",
          "name": "endTime",
          "type": "uint256"
        },
        {
          "internalType": "bool",
          "name": "isActive",
          "type": "bool"
        }
      ],
      "stateMutability": "view",
      "type": "function"
    },
    {
      "inputs": [
        {
          "internalType": "uint256",
          "name": "electionId",
          "type": "uint256"
        }
      ],
      "name": "endElection",
      "outputs": [],
      "stateMutability": "nonpayable",
      "type": "function"
    },
    {
      "inputs": [
        {
          "internalType": "uint256",
          "name": "electionId",
          "type": "uint256"
        }
      ],
      "name": "getCandidates",
      "outputs": [
        {
          "internalType": "string[]",
          "name": "",
          "type": "string[]"
        }
      ],
      "stateMutability": "view",
      "type": "function"
    },
    {
      "inputs": [
        {
          "internalType": "uint256",
          "name": "electionId",
          "type": "uint256"
        }
      ],
      "name": "getResults",
      "outputs": [
        {
          "internalType": "uint256[]",
          "name": "",
          "type": "uint256[]"
        }
      ],
      "stateMutability": "view",
      "type": "function"
    },
    {
      "inputs": [
        {
          "internalType": "uint256",
          "name": "electionId",
          "type": "uint256"
        },
        {
          "internalType": "address",
          "name": "voter",
          "type": "address"
        }
      ],
      "name": "getVoterProfile",
      "outputs": [
        {
          "internalType": "bool",
          "name": "",
          "type": "bool"
        },
        {
          "internalType": "bool",
          "name": "",
          "type": "bool"
        },
        {
          "internalType": "uint256",
          "name": "",
          "type": "uint256"
        }
      ],
      "stateMutability": "view",
      "type": "function"
    },
    {
      "inputs": [
        {
          "internalType": "uint256",
          "name": "electionId",
          "type": "uint256"
        }
      ],
      "name": "getVoters",
      "outputs": [
        {
          "internalType": "address[]",
          "name": "",
          "type": "address[]"
        }
      ],
      "stateMutability": "view",
      "type": "function"
    },
    {
      "inputs": [
        {
          "internalType": "uint256",
          "name": "electionId",
          "type": "uint256"
        },
        {
          "internalType": "address[]",
          "name": "voters",
          "type": "address[]"
        }
      ],
      "name": "registerMultipleVoters",
      "outputs": [],
      "stateMutability": "nonpayable",
      "type": "function"
    },
    {
      "inputs": [
        {
          "internalType": "uint256",
          "name": "electionId",
          "type": "uint256"
        },
        {
          "internalType": "address",
          "name": "voter",
          "type": "address"
        }
      ],
      "name": "registerVoter",
      "outputs": [],
      "stateMutability": "nonpayable",
      "type": "function"
    },
    {
      "inputs": [
        {
          "internalType": "uint256",
          "name": "electionId",
          "type": "uint256"
        },
        {
          "internalType": "uint256",
          "name": "candidateId",
          "type": "uint256"
        }
      ],
      "name": "vote",
      "outputs": [],
      "stateMutability": "nonpayable",
      "type": "function"
    },
    {
      "stateMutability": "payable",
      "type": "receive"
    }
  ],
  "bytecode": "0x608060405234801561001057600080fd5b50336000806101000a81548173ffffffffffffffffffffffffffffffffffffffff021916908373ffffffffffffffffffffffffffffffffffffffff160217905550612a96806100606000396000f3fe6080604052600436106100ab5760003560e01c80639430e258116100645780639430e2581461023c57806394c790bb1461027b5780639c98bcbb146102a4578063b384abef146102cd578063bc279047146102f6578063f851a4401461031f576100eb565b806317517e05146100f05780633e39a7a5146101195780635e6fef011461015657806361e374171461019757806381a60c0d146101c257806386b646f2146101ff576100eb565b366100eb576040517f08c379a00000000000000000000000000000000000000000000000000000000081526004016100e29061240d565b60405180910390fd5b600080fd5b3480156100fc57600080fd5b5061011760048036038101906101129190611baf565b61034a565b005b34801561012557600080fd5b50610140600480360381019061013b9190611b4a565b61064f565b60405161014d9190612352565b60405180910390f35b34801561016257600080fd5b5061017d60048036038101906101789190611b4a565b6107a6565b60405161018e9594939291906126a4565b60405180910390f35b3480156101a357600080fd5b506101ac610871565b6040516101b991906125ad565b60405180910390f35b3480156101ce57600080fd5b506101e960048036038101906101e49190611b4a565b610877565b6040516101f69190612374565b60405180910390f35b34801561020b57600080fd5b5061022660048036038101906102219190611b4a565b610a4f565b6040516102339190612330565b60405180910390f35b34801561024857600080fd5b50610263600480360381019061025e9190611b73565b610b5b565b60405161027293929190612396565b60405180910390f35b34801561028757600080fd5b506102a2600480360381019061029d9190611b73565b610ccb565b005b3480156102b057600080fd5b506102cb60048036038101906102c69190611b4a565b610f6a565b005b3480156102d957600080fd5b506102f460048036038101906102ef9190611c03565b611264565b005b34801561030257600080fd5b5061031d60048036038101906103189190611ab7565b611586565b005b34801561032b57600080fd5b5061033461177d565b6040516103419190612315565b60405180910390f35b60008054906101000a900473ffffffffffffffffffffffffffffffffffffffff1673ffffffffffffffffffffffffffffffffffffffff163373ffffffffffffffffffffffffffffffffffffffff16146103d8576040517f08c379a00000000000000000000000000000000000000000000000000000000081526004016103cf9061256d565b60405180910390fd5b8160015481111580156104005750806002600083815260200190815260200160002060000154145b61043f576040517f08c379a00000000000000000000000000000000000000000000000000000000081526004016104369061248d565b60405180910390fd5b600060026000858152602001908152602001600020905060005b835181101561064857600084828151811061049d577f4e487b7100000000000000000000000000000000000000000000000000000000600052603260045260246000fd5b602002602001015190508260050160008273ffffffffffffffffffffffffffffffffffffffff1673ffffffffffffffffffffffffffffffffffffffff16815260200190815260200160002060000160009054906101000a900460ff1615610539576040517f08c379a0000000000000000000000000000000000000000000000000000000008152600401610530906124ed565b60405180910390fd5b60018360050160008373ffffffffffffffffffffffffffffffffffffffff1673ffffffffffffffffffffffffffffffffffffffff16815260200190815260200160002060000160006101000a81548160ff02191690831515021790555082600601819080600181540180825580915050600190039060005260206000200160009091909190916101000a81548173ffffffffffffffffffffffffffffffffffffffff021916908373ffffffffffffffffffffffffffffffffffffffff1602179055507ff45b8429c36d478f9a6d081c4811a819b98aa5b608588bed9d406405cf282473868260405161062c9291906125c8565b60405180910390a15080806106409061294b565b915050610459565b5050505050565b60608160015481111580156106795750806002600083815260200190815260200160002060000154145b6106b8576040517f08c379a00000000000000000000000000000000000000000000000000000000081526004016106af9061248d565b60405180910390fd5b60026000848152602001908152602001600020600401805480602002602001604051908101604052809291908181526020016000905b8282101561079a57838290600052602060002001805461070d90612919565b80601f016020809104026020016040519081016040528092919081815260200182805461073990612919565b80156107865780601f1061075b57610100808354040283529160200191610786565b820191906000526020600020905b81548152906001019060200180831161076957829003601f168201915b5050505050815260200190600101906106ee565b50505050915050919050565b60026020528060005260406000206000915090508060000154908060010180546107cf90612919565b80601f01602080910402602001604051908101604052809291908181526020018280546107fb90612919565b80156108485780601f1061081d57610100808354040283529160200191610848565b820191906000526020600020905b81548152906001019060200180831161082b57829003601f168201915b5050505050908060020154908060030154908060080160009054906101000a900460ff16905085565b60015481565b60608160015481111580156108a15750806002600083815260200190815260200160002060000154145b6108e0576040517f08c379a00000000000000000000000000000000000000000000000000000000081526004016108d79061248d565b60405180910390fd5b60006002600085815260200190815260200160002090508060080160009054906101000a900460ff1615610949576040517f08c379a00000000000000000000000000000000000000000000000000000000081526004016109409061242d565b60405180910390fd5b6000816004018054905067ffffffffffffffff811115610992577f4e487b7100000000000000000000000000000000000000000000000000000000600052604160045260246000fd5b6040519080825280602002602001820160405280156109c05781602001602082028036833780820191505090505b50905060005b8260040180549050811015610a435782600701600082815260200190815260200160002054828281518110610a24577f4e487b7100000000000000000000000000000000000000000000000000000000600052603260045260246000fd5b6020026020010181815250508080610a3b9061294b565b9150506109c6565b50809350505050919050565b6060816001548111158015610a795750806002600083815260200190815260200160002060000154145b610ab8576040517f08c379a0000000000000000000000000000000000000000000000000000000008152600401610aaf9061248d565b60405180910390fd5b60026000848152602001908152602001600020600601805480602002602001604051908101604052809291908181526020018280548015610b4e57602002820191906000526020600020905b8160009054906101000a900473ffffffffffffffffffffffffffffffffffffffff1673ffffffffffffffffffffffffffffffffffffffff1681526020019060010190808311610b04575b5050505050915050919050565b6000806000846001548111158015610b885750806002600083815260200190815260200160002060000154145b610bc7576040517f08c379a0000000000000000000000000000000000000000000000000000000008152600401610bbe9061248d565b60405180910390fd5b600060026000888152602001908152602001600020905060008160050160008873ffffffffffffffffffffffffffffffffffffffff1673ffffffffffffffffffffffffffffffffffffffff16815260200190815260200160002090508060000160009054906101000a900460ff16610c74576040517f08c379a0000000000000000000000000000000000000000000000000000000008152600401610c6b9061246d565b60405180910390fd5b8060000160009054906101000a900460ff168160000160019054906101000a900460ff168260000160019054906101000a900460ff16610cb5576000610cbb565b82600101545b9550955095505050509250925092565b60008054906101000a900473ffffffffffffffffffffffffffffffffffffffff1673ffffffffffffffffffffffffffffffffffffffff163373ffffffffffffffffffffffffffffffffffffffff1614610d59576040517f08c379a0000000000000000000000000000000000000000000000000000000008152600401610d509061256d565b60405180910390fd5b816001548111158015610d815750806002600083815260200190815260200160002060000154145b610dc0576040517f08c379a0000000000000000000000000000000000000000000000000000000008152600401610db79061248d565b60405180910390fd5b60006002600085815260200190815260200160002090508060050160008473ffffffffffffffffffffffffffffffffffffffff1673ffffffffffffffffffffffffffffffffffffffff16815260200190815260200160002060000160009054906101000a900460ff1615610e69576040517f08c379a0000000000000000000000000000000000000000000000000000000008152600401610e60906124ed565b60405180910390fd5b60018160050160008573ffffffffffffffffffffffffffffffffffffffff1673ffffffffffffffffffffffffffffffffffffffff16815260200190815260200160002060000160006101000a81548160ff02191690831515021790555080600601839080600181540180825580915050600190039060005260206000200160009091909190916101000a81548173ffffffffffffffffffffffffffffffffffffffff021916908373ffffffffffffffffffffffffffffffffffffffff1602179055507ff45b8429c36d478f9a6d081c4811a819b98aa5b608588bed9d406405cf2824738484604051610f5c9291906125c8565b60405180910390a150505050565b60008054906101000a900473ffffffffffffffffffffffffffffffffffffffff1673ffffffffffffffffffffffffffffffffffffffff163373ffffffffffffffffffffffffffffffffffffffff1614610ff8576040517f08c379a0000000000000000000000000000000000000000000000000000000008152600401610fef9061256d565b60405180910390fd5b8060015481111580156110205750806002600083815260200190815260200160002060000154145b61105f576040517f08c379a00000000000000000000000000000000000000000000000000000000081526004016110569061248d565b60405180910390fd5b60006002600084815260200190815260200160002090508060080160009054906101000a900460ff166110c7576040517f08c379a00000000000000000000000000000000000000000000000000000000081526004016110be9061244d565b60405180910390fd5b8060030154421161110d576040517f08c379a0000000000000000000000000000000000000000000000000000000008152600401611104906124ad565b60405180910390fd5b60008160080160006101000a81548160ff0219169083151502179055506000816004018054905067ffffffffffffffff811115611173577f4e487b7100000000000000000000000000000000000000000000000000000000600052604160045260246000fd5b6040519080825280602002602001820160405280156111a15781602001602082028036833780820191505090505b50905060005b82600401805490508110156112245782600701600082815260200190815260200160002054828281518110611205577f4e487b7100000000000000000000000000000000000000000000000000000000600052603260045260246000fd5b602002602001018181525050808061121c9061294b565b9150506111a7565b507f35a1c053de6c85672294c1aaaea8617367a5f9c313f8543d4552374f783c6ff08482604051611256929190612628565b60405180910390a150505050565b81600154811115801561128c5750806002600083815260200190815260200160002060000154145b6112cb576040517f08c379a00000000000000000000000000000000000000000000000000000000081526004016112c29061248d565b60405180910390fd5b826002600082815260200190815260200160002060080160009054906101000a900460ff1661132f576040517f08c379a00000000000000000000000000000000000000000000000000000000081526004016113269061252d565b60405180910390fd5b6002600082815260200190815260200160002060020154421015801561136b575060026000828152602001908152602001600020600301544211155b6113aa576040517f08c379a00000000000000000000000000000000000000000000000000000000081526004016113a1906123ed565b60405180910390fd5b600060026000868152602001908152602001600020905060008160050160003373ffffffffffffffffffffffffffffffffffffffff1673ffffffffffffffffffffffffffffffffffffffff16815260200190815260200160002090508060000160009054906101000a900460ff16611457576040517f08c379a000000000000000000000000000000000000000000000000000000000815260040161144e9061250d565b60405180910390fd5b8060000160019054906101000a900460ff16156114a9576040517f08c379a00000000000000000000000000000000000000000000000000000000081526004016114a09061258d565b60405180910390fd5b816004018054905085106114f2576040517f08c379a00000000000000000000000000000000000000000000000000000000081526004016114e99061254d565b60405180910390fd5b60018160000160016101000a81548160ff021916908315150217905550848160010181905550816007016000868152602001908152602001600020600081548092919061153e9061294b565b91905055507f2acce567deca3aabf56327adbb4524bd5318936eaefa69e3a5208ffda0cfec09863387604051611576939291906125f1565b60405180910390a1505050505050565b60008054906101000a900473ffffffffffffffffffffffffffffffffffffffff1673ffffffffffffffffffffffffffffffffffffffff163373ffffffffffffffffffffffffffffffffffffffff1614611614576040517f08c379a000000000000000000000000000000000000000000000000000000000815260040161160b9061256d565b60405180910390fd5b818310611656576040517f08c379a000000000000000000000000000000000000000000000000000000000815260040161164d906123cd565b60405180910390fd5b600081511161169a576040517f08c379a0000000000000000000000000000000000000000000000000000000008152600401611691906124cd565b60405180910390fd5b600160008154809291906116ad9061294b565b9190505550600060026000600154815260200190815260200160002090506001548160000181905550848160010190805190602001906116ee9291906117a1565b5083816002018190555082816003018190555060018160080160006101000a81548160ff02191690831515021790555081816004019080519060200190611736929190611827565b507fe7a0aae5d733e07e246dea86213a1ac1b0aa8554bde889bb75c12752f44e53d960015486868660405161176e9493929190612658565b60405180910390a15050505050565b60008054906101000a900473ffffffffffffffffffffffffffffffffffffffff1681565b8280546117ad90612919565b90600052602060002090601f0160209004810192826117cf5760008555611816565b82601f106117e857805160ff1916838001178555611816565b82800160010185558215611816579182015b828111156118155782518255916020019190600101906117fa565b5b5090506118239190611887565b5090565b828054828255906000526020600020908101928215611876579160200282015b828111156118755782518290805190602001906118659291906117a1565b5091602001919060010190611847565b5b50905061188391906118a4565b5090565b5b808211156118a0576000816000905550600101611888565b5090565b5b808211156118c457600081816118bb91906118c8565b506001016118a5565b5090565b5080546118d490612919565b6000825580601f106118e65750611905565b601f0160209004906000526020600020908101906119049190611887565b5b50565b600061191b6119168461272f565b6126fe565b9050808382526020820190508285602086028201111561193a57600080fd5b60005b8581101561196a57816119508882611a0f565b84526020840193506020830192505060018101905061193d565b5050509392505050565b60006119876119828461275b565b6126fe565b9050808382526020820190508260005b858110156119c757813585016119ad8882611a78565b845260208401935060208301925050600181019050611997565b5050509392505050565b60006119e46119df84612787565b6126fe565b9050828152602081018484840111156119fc57600080fd5b611a078482856128d7565b509392505050565b600081359050611a1e81612a32565b92915050565b600082601f830112611a3557600080fd5b8135611a45848260208601611908565b91505092915050565b600082601f830112611a5f57600080fd5b8135611a6f848260208601611974565b91505092915050565b600082601f830112611a8957600080fd5b8135611a998482602086016119d1565b91505092915050565b600081359050611ab181612a49565b92915050565b60008060008060808587031215611acd57600080fd5b600085013567ffffffffffffffff811115611ae757600080fd5b611af387828801611a78565b9450506020611b0487828801611aa2565b9350506040611b1587828801611aa2565b925050606085013567ffffffffffffffff811115611b3257600080fd5b611b3e87828801611a4e565b91505092959194509250565b600060208284031215611b5c57600080fd5b6000611b6a84828501611aa2565b91505092915050565b60008060408385031215611b8657600080fd5b6000611b9485828601611aa2565b9250506020611ba585828601611a0f565b9150509250929050565b60008060408385031215611bc257600080fd5b6000611bd085828601611aa2565b925050602083013567ffffffffffffffff811115611bed57600080fd5b611bf985828601611a24565b9150509250929050565b60008060408385031215611c1657600080fd5b6000611c2485828601611aa2565b9250506020611c3585828601611aa2565b9150509250929050565b6000611c4b8383611c83565b60208301905092915050565b6000611c638383611de1565b905092915050565b6000611c7783836122f7565b60208301905092915050565b611c8c8161288f565b82525050565b611c9b8161288f565b82525050565b6000611cac826127e7565b611cb6818561283a565b9350611cc1836127b7565b8060005b83811015611cf2578151611cd98882611c3f565b9750611ce483612813565b925050600181019050611cc5565b5085935050505092915050565b6000611d0a826127f2565b611d14818561284b565b935083602082028501611d26856127c7565b8060005b85811015611d625784840389528151611d438582611c57565b9450611d4e83612820565b925060208a01995050600181019050611d2a565b50829750879550505050505092915050565b6000611d7f826127fd565b611d89818561285c565b9350611d94836127d7565b8060005b83811015611dc5578151611dac8882611c6b565b9750611db78361282d565b925050600181019050611d98565b5085935050505092915050565b611ddb816128a1565b82525050565b6000611dec82612808565b611df6818561286d565b9350611e068185602086016128e6565b611e0f81612a21565b840191505092915050565b6000611e2582612808565b611e2f818561287e565b9350611e3f8185602086016128e6565b611e4881612a21565b840191505092915050565b6000611e6060228361287e565b91507f53746172742074696d65206d757374206265206265666f726520656e6420746960008301527f6d650000000000000000000000000000000000000000000000000000000000006020830152604082019050919050565b6000611ec6602c8361287e565b91507f456c656374696f6e206973206e6f742077697468696e2074686520616374697660008301527f652074696d65206672616d6500000000000000000000000000000000000000006020830152604082019050919050565b6000611f2c60238361287e565b91507f5468697320636f6e747261637420646f6573206e6f742061636365707420457460008301527f68657200000000000000000000000000000000000000000000000000000000006020830152604082019050919050565b6000611f9260188361287e565b91507f456c656374696f6e206973207374696c6c2061637469766500000000000000006000830152602082019050919050565b6000611fd260198361287e565b91507f456c656374696f6e20697320616c726561647920656e646564000000000000006000830152602082019050919050565b600061201260368361287e565b91507f5468697320766f746572206973206e6f74207265676973746572656420696e2060008301527f7468652073706563696669656420656c656374696f6e000000000000000000006020830152604082019050919050565b600061207860178361287e565b91507f456c656374696f6e20646f6573206e6f742065786973740000000000000000006000830152602082019050919050565b60006120b8601a8361287e565b91507f456c656374696f6e20686173206e6f7420656e646564207965740000000000006000830152602082019050919050565b60006120f860208361287e565b91507f4d7573742068617665206174206c65617374206f6e652063616e6469646174656000830152602082019050919050565b6000612138601b8361287e565b91507f566f74657220697320616c7265616479207265676973746572656400000000006000830152602082019050919050565b6000612178602f8361287e565b91507f596f7520617265206e6f74207265676973746572656420746f20766f7465206960008301527f6e207468697320656c656374696f6e00000000000000000000000000000000006020830152604082019050919050565b60006121de60168361287e565b91507f456c656374696f6e206973206e6f7420616374697665000000000000000000006000830152602082019050919050565b600061221e60148361287e565b91507f496e76616c69642063616e6469646174652049440000000000000000000000006000830152602082019050919050565b600061225e60218361287e565b91507f4f6e6c792061646d696e2063616e2063616c6c20746869732066756e6374696f60008301527f6e000000000000000000000000000000000000000000000000000000000000006020830152604082019050919050565b60006122c460168361287e565b91507f596f75206861766520616c726561647920766f746564000000000000000000006000830152602082019050919050565b612300816128cd565b82525050565b61230f816128cd565b82525050565b600060208201905061232a6000830184611c92565b92915050565b6000602082019050818103600083015261234a8184611ca1565b905092915050565b6000602082019050818103600083015261236c8184611cff565b905092915050565b6000602082019050818103600083015261238e8184611d74565b905092915050565b60006060820190506123ab6000830186611dd2565b6123b86020830185611dd2565b6123c56040830184612306565b949350505050565b600060208201905081810360008301526123e681611e53565b9050919050565b6000602082019050818103600083015261240681611eb9565b9050919050565b6000602082019050818103600083015261242681611f1f565b9050919050565b6000602082019050818103600083015261244681611f85565b9050919050565b6000602082019050818103600083015261246681611fc5565b9050919050565b6000602082019050818103600083015261248681612005565b9050919050565b600060208201905081810360008301526124a68161206b565b9050919050565b600060208201905081810360008301526124c6816120ab565b9050919050565b600060208201905081810360008301526124e6816120eb565b9050919050565b600060208201905081810360008301526125068161212b565b9050919050565b600060208201905081810360008301526125268161216b565b9050919050565b60006020820190508181036000830152612546816121d1565b9050919050565b6000602082019050818103600083015261256681612211565b9050919050565b6000602082019050818103600083015261258681612251565b9050919050565b600060208201905081810360008301526125a6816122b7565b9050919050565b60006020820190506125c26000830184612306565b92915050565b60006040820190506125dd6000830185612306565b6125ea6020830184611c92565b9392505050565b60006060820190506126066000830186612306565b6126136020830185611c92565b6126206040830184612306565b949350505050565b600060408201905061263d6000830185612306565b818103602083015261264f8184611d74565b90509392505050565b600060808201905061266d6000830187612306565b818103602083015261267f8186611e1a565b905061268e6040830185612306565b61269b6060830184612306565b95945050505050565b600060a0820190506126b96000830188612306565b81810360208301526126cb8187611e1a565b90506126da6040830186612306565b6126e76060830185612306565b6126f46080830184611dd2565b9695505050505050565b6000604051905081810181811067ffffffffffffffff82111715612725576127246129f2565b5b8060405250919050565b600067ffffffffffffffff82111561274a576127496129f2565b5b602082029050602081019050919050565b600067ffffffffffffffff821115612776576127756129f2565b5b602082029050602081019050919050565b600067ffffffffffffffff8211156127a2576127a16129f2565b5b601f19601f8301169050602081019050919050565b6000819050602082019050919050565b6000819050602082019050919050565b6000819050602082019050919050565b600081519050919050565b600081519050919050565b600081519050919050565b600081519050919050565b6000602082019050919050565b6000602082019050919050565b6000602082019050919050565b600082825260208201905092915050565b600082825260208201905092915050565b600082825260208201905092915050565b600082825260208201905092915050565b600082825260208201905092915050565b600061289a826128ad565b9050919050565b60008115159050919050565b600073ffffffffffffffffffffffffffffffffffffffff82169050919050565b6000819050919050565b82818337600083830152505050565b60005b838110156129045780820151818401526020810190506128e9565b83811115612913576000848401525b50505050565b6000600282049050600182168061293157607f821691505b60208210811415612945576129446129c3565b5b50919050565b6000612956826128cd565b91507fffffffffffffffffffffffffffffffffffffffffffffffffffffffffffffffff82141561298957612988612994565b5b600182019050919050565b7f4e487b7100000000000000000000000000000000000000000000000000000000600052601160045260246000fd5b7f4e487b7100000000000000000000000000000000000000000000000000000000600052602260045260246000fd5b7f4e487b7100000000000000000000000000000000000000000000000000000000600052604160045260246000fd5b6000601f19601f8301169050919050565b612a3b8161288f565b8114612a4657600080fd5b50565b612a52816128cd565b8114612a5d57600080fd5b5056fea26469706673582212204ad1ce1f8bdcb15a4f969e14a8b1b86c839dd3284ad902fd5630c0b92ff2aa7b64736f6c63430008000033",
  "linkReferences": {},
  "deployedLinkReferences": {}
}