{
  "_format": "hh-sol-artifact-1",
  "contractName": "BlockchainVoting",
  "sourceName": "contracts/BlockchainVoting.sol",
  "abi": [
    {
      "inputs": [],
      "stateMutability": "nonpayable",
      "type": "constructor"
    },
    {
      "anonymous": false,
      "inputs": [
        {
          "indexed": false,
          "internalType": "uint256",
          "name": "electionId",
          "type": "uint256"
        },
        {
          "indexed": false,
          "internalType": "string",
          "name": "name",
          "type": "string"
        },
        {
          "indexed": false,
          "internalType": "uint256",
          "name": "startTime",
          "type": "uint256"
        },
        {
          "indexed": false,
          "internalType": "uint256",
          "name": "endTime",
          "type": "uint256"
        }
      ],
      "name": "ElectionCreated",
      "type": "event"
    },
    {
      "anonymous": false,
      "inputs": [
        {
          "indexed": false,
          "internalType": "uint256",
          "name": "electionId",
          "type": "uint256"
        },
        {
          "indexed": false,
          "internalType": "uint256[]",
          "name": "results",
          "type": "uint256[]"
        }
      ],
      "name": "ElectionEnded",
      "type": "event"
    },
    {
      "anonymous": false,
      "inputs": [
        {
          "indexed": false,
          "internalType": "uint256",
          "name": "electionId",
          "type": "uint256"
        },
        {
          "indexed": false,
          "internalType": "address",
          "name": "voter",
          "type": "address"
        },
        {
          "indexed": false,
          "internalType": "uint256",
          "name": "candidateId",
          "type": "uint256"
        }
      ],
      "name": "VoteCast",
      "type": "event"
    },
    {
      "anonymous": false,
      "inputs": [
        {
          "indexed": false,
          "internalType": "uint256",
          "name": "electionId",
          "type": "uint256"
        },
        {
          "indexed": false,
          "internalType": "address",
          "name": "voter",
          "type": "address"
        }
      ],
      "name": "VoterRegistered",
      "type": "event"
    },
    {
      "inputs": [],
      "name": "admin",
      "outputs": [
        {
          "internalType": "address",
          "name": "",
          "type": "address"
        }
      ],
      "stateMutability": "view",
      "type": "function"
    },
    {
      "inputs": [
        {
          "internalType": "string",
          "name": "name",
          "type": "string"
        },
        {
          "internalType": "uint256",
          "name": "startTime",
          "type": "uint256"
        },
        {
          "internalType": "uint256",
          "name": "endTime",
          "type": "uint256"
        },
        {
          "internalType": "string[]",
          "name": "candidates",
          "type": "string[]"
        }
      ],
      "name": "createElection",
      "outputs": [],
      "stateMutability": "nonpayable",
      "type": "function"
    },
    {
      "inputs": [],
      "name": "electionCounter",
      "outputs": [
        {
          "internalType": "uint256",
          "name": "",
          "type": "uint256"
        }
      ],
      "stateMutability": "view",
      "type": "function"
    },
    {
      "inputs": [
        {
          "internalType": "uint256",
          "name": "",
          "type": "uint256"
        }
      ],
      "name": "elections",
      "outputs": [
        {
          "internalType": "uint256",
          "name": "id",
          "type": "uint256"
        },
        {
          "internalType": "string",
          "name": "name",
          "type": "string"
        },
        {
          "internalType": "uint256",
          "name": "startTime",
          "type": "uint256"
        },
        {
          "internalType": "uint256",
          "name": "endTime",
          "type": "uint256"
        },
        {
          "internalType": "bool",
          "name": "isActive",
          "type": "bool"
        }
      ],
      "stateMutability": "view",
      "type": "function"
    },
    {
      "inputs": [
        {
          "internalType": "uint256",
          "name": "electionId",
          "type": "uint256"
        }
      ],
      "name": "endElection",
      "outputs": [],
      "stateMutability": "nonpayable",
      "type": "function"
    },
    {
      "inputs": [
        {
          "internalType": "uint256",
          "name": "electionId",
          "type": "uint256"
        }
      ],
      "name": "getCandidates",
      "outputs": [
        {
          "internalType": "string[]",
          "name": "",
          "type": "string[]"
        }
      ],
      "stateMutability": "view",
      "type": "function"
    },
    {
      "inputs": [
        {
          "internalType": "uint256",
          "name": "electionId",
          "type": "uint256"
        }
      ],
      "name": "getResults",
      "outputs": [
        {
          "internalType": "uint256[]",
          "name": "",
          "type": "uint256[]"
        }
      ],
      "stateMutability": "view",
      "type": "function"
    },
    {
      "inputs": [
        {
          "internalType": "uint256",
          "name": "electionId",
          "type": "uint256"
        },
        {
          "internalType": "address",
          "name": "voter",
          "type": "address"
        }
      ],
      "name": "getVoterProfile",
      "outputs": [
        {
          "internalType": "bool",
          "name": "",
          "type": "bool"
        },
        {
          "internalType": "bool",
          "name": "",
          "type": "bool"
        },
        {
          "internalType": "uint256",
          "name": "",
          "type": "uint256"
        }
      ],
      "stateMutability": "view",
      "type": "function"
    },
    {
      "inputs": [
        {
          "internalType": "uint256",
          "name": "electionId",
          "type": "uint256"
        }
      ],
      "name": "getVoters",
      "outputs": [
        {
          "internalType": "address[]",
          "name": "",
          "type": "address[]"
        }
      ],
      "stateMutability": "view",
      "type": "function"
    },
    {
      "inputs": [
        {
          "internalType": "uint256",
          "name": "electionId",
          "type": "uint256"
        },
        {
          "internalType": "address",
          "name": "voter",
          "type": "address"
        }
      ],
      "name": "registerVoter",
      "outputs": [],
      "stateMutability": "nonpayable",
      "type": "function"
    },
    {
      "inputs": [
        {
          "internalType": "uint256",
          "name": "electionId",
          "type": "uint256"
        },
        {
          "internalType": "uint256",
          "name": "candidateId",
          "type": "uint256"
        }
      ],
      "name": "vote",
      "outputs": [],
      "stateMutability": "nonpayable",
      "type": "function"
    }
  ],
  "bytecode": "0x608060405234801561001057600080fd5b50336000806101000a81548173ffffffffffffffffffffffffffffffffffffffff021916908373ffffffffffffffffffffffffffffffffffffffff1602179055506124fb806100606000396000f3fe608060405234801561001057600080fd5b50600436106100a95760003560e01c80639430e258116100715780639430e2581461019057806394c790bb146101c25780639c98bcbb146101de578063b384abef146101fa578063bc27904714610216578063f851a44014610232576100a9565b80633e39a7a5146100ae5780635e6fef01146100de57806361e374171461011257806381a60c0d1461013057806386b646f214610160575b600080fd5b6100c860048036038101906100c391906116b5565b610250565b6040516100d59190611e03565b60405180910390f35b6100f860048036038101906100f391906116b5565b6103a7565b604051610109959493929190612135565b60405180910390f35b61011a610472565b604051610127919061203e565b60405180910390f35b61014a600480360381019061014591906116b5565b610478565b6040516101579190611e25565b60405180910390f35b61017a600480360381019061017591906116b5565b610650565b6040516101879190611de1565b60405180910390f35b6101aa60048036038101906101a591906116de565b61075c565b6040516101b993929190611e47565b60405180910390f35b6101dc60048036038101906101d791906116de565b6108cc565b005b6101f860048036038101906101f391906116b5565b610b6b565b005b610214600480360381019061020f919061171a565b610e65565b005b610230600480360381019061022b9190611622565b611187565b005b61023a61137e565b6040516102479190611dc6565b60405180910390f35b606081600154811115801561027a5750806002600083815260200190815260200160002060000154145b6102b9576040517f08c379a00000000000000000000000000000000000000000000000000000000081526004016102b090611f1e565b60405180910390fd5b60026000848152602001908152602001600020600401805480602002602001604051908101604052809291908181526020016000905b8282101561039b57838290600052602060002001805461030e9061237e565b80601f016020809104026020016040519081016040528092919081815260200182805461033a9061237e565b80156103875780601f1061035c57610100808354040283529160200191610387565b820191906000526020600020905b81548152906001019060200180831161036a57829003601f168201915b5050505050815260200190600101906102ef565b50505050915050919050565b60026020528060005260406000206000915090508060000154908060010180546103d09061237e565b80601f01602080910402602001604051908101604052809291908181526020018280546103fc9061237e565b80156104495780601f1061041e57610100808354040283529160200191610449565b820191906000526020600020905b81548152906001019060200180831161042c57829003601f168201915b5050505050908060020154908060030154908060080160009054906101000a900460ff16905085565b60015481565b60608160015481111580156104a25750806002600083815260200190815260200160002060000154145b6104e1576040517f08c379a00000000000000000000000000000000000000000000000000000000081526004016104d890611f1e565b60405180910390fd5b60006002600085815260200190815260200160002090508060080160009054906101000a900460ff161561054a576040517f08c379a000000000000000000000000000000000000000000000000000000000815260040161054190611ebe565b60405180910390fd5b6000816004018054905067ffffffffffffffff811115610593577f4e487b7100000000000000000000000000000000000000000000000000000000600052604160045260246000fd5b6040519080825280602002602001820160405280156105c15781602001602082028036833780820191505090505b50905060005b82600401805490508110156106445782600701600082815260200190815260200160002054828281518110610625577f4e487b7100000000000000000000000000000000000000000000000000000000600052603260045260246000fd5b602002602001018181525050808061063c906123b0565b9150506105c7565b50809350505050919050565b606081600154811115801561067a5750806002600083815260200190815260200160002060000154145b6106b9576040517f08c379a00000000000000000000000000000000000000000000000000000000081526004016106b090611f1e565b60405180910390fd5b6002600084815260200190815260200160002060060180548060200260200160405190810160405280929190818152602001828054801561074f57602002820191906000526020600020905b8160009054906101000a900473ffffffffffffffffffffffffffffffffffffffff1673ffffffffffffffffffffffffffffffffffffffff1681526020019060010190808311610705575b5050505050915050919050565b60008060008460015481111580156107895750806002600083815260200190815260200160002060000154145b6107c8576040517f08c379a00000000000000000000000000000000000000000000000000000000081526004016107bf90611f1e565b60405180910390fd5b600060026000888152602001908152602001600020905060008160050160008873ffffffffffffffffffffffffffffffffffffffff1673ffffffffffffffffffffffffffffffffffffffff16815260200190815260200160002090508060000160009054906101000a900460ff16610875576040517f08c379a000000000000000000000000000000000000000000000000000000000815260040161086c90611efe565b60405180910390fd5b8060000160009054906101000a900460ff168160000160019054906101000a900460ff168260000160019054906101000a900460ff166108b65760006108bc565b82600101545b9550955095505050509250925092565b60008054906101000a900473ffffffffffffffffffffffffffffffffffffffff1673ffffffffffffffffffffffffffffffffffffffff163373ffffffffffffffffffffffffffffffffffffffff161461095a576040517f08c379a000000000000000000000000000000000000000000000000000000000815260040161095190611ffe565b60405180910390fd5b8160015481111580156109825750806002600083815260200190815260200160002060000154145b6109c1576040517f08c379a00000000000000000000000000000000000000000000000000000000081526004016109b890611f1e565b60405180910390fd5b60006002600085815260200190815260200160002090508060050160008473ffffffffffffffffffffffffffffffffffffffff1673ffffffffffffffffffffffffffffffffffffffff16815260200190815260200160002060000160009054906101000a900460ff1615610a6a576040517f08c379a0000000000000000000000000000000000000000000000000000000008152600401610a6190611f7e565b60405180910390fd5b60018160050160008573ffffffffffffffffffffffffffffffffffffffff1673ffffffffffffffffffffffffffffffffffffffff16815260200190815260200160002060000160006101000a81548160ff02191690831515021790555080600601839080600181540180825580915050600190039060005260206000200160009091909190916101000a81548173ffffffffffffffffffffffffffffffffffffffff021916908373ffffffffffffffffffffffffffffffffffffffff1602179055507ff45b8429c36d478f9a6d081c4811a819b98aa5b608588bed9d406405cf2824738484604051610b5d929190612059565b60405180910390a150505050565b60008054906101000a900473ffffffffffffffffffffffffffffffffffffffff1673ffffffffffffffffffffffffffffffffffffffff163373ffffffffffffffffffffffffffffffffffffffff1614610bf9576040517f08c379a0000000000000000000000000000000000000000000000000000000008152600401610bf090611ffe565b60405180910390fd5b806001548111158015610c215750806002600083815260200190815260200160002060000154145b610c60576040517f08c379a0000000000000000000000000000000000000000000000000000000008152600401610c5790611f1e565b60405180910390fd5b60006002600084815260200190815260200160002090508060080160009054906101000a900460ff16610cc8576040517f08c379a0000000000000000000000000000000000000000000000000000000008152600401610cbf90611ede565b60405180910390fd5b80600301544211610d0e576040517f08c379a0000000000000000000000000000000000000000000000000000000008152600401610d0590611f3e565b60405180910390fd5b60008160080160006101000a81548160ff0219169083151502179055506000816004018054905067ffffffffffffffff811115610d74577f4e487b7100000000000000000000000000000000000000000000000000000000600052604160045260246000fd5b604051908082528060200260200182016040528015610da25781602001602082028036833780820191505090505b50905060005b8260040180549050811015610e255782600701600082815260200190815260200160002054828281518110610e06577f4e487b7100000000000000000000000000000000000000000000000000000000600052603260045260246000fd5b6020026020010181815250508080610e1d906123b0565b915050610da8565b507f35a1c053de6c85672294c1aaaea8617367a5f9c313f8543d4552374f783c6ff08482604051610e579291906120b9565b60405180910390a150505050565b816001548111158015610e8d5750806002600083815260200190815260200160002060000154145b610ecc576040517f08c379a0000000000000000000000000000000000000000000000000000000008152600401610ec390611f1e565b60405180910390fd5b826002600082815260200190815260200160002060080160009054906101000a900460ff16610f30576040517f08c379a0000000000000000000000000000000000000000000000000000000008152600401610f2790611fbe565b60405180910390fd5b60026000828152602001908152602001600020600201544210158015610f6c575060026000828152602001908152602001600020600301544211155b610fab576040517f08c379a0000000000000000000000000000000000000000000000000000000008152600401610fa290611e9e565b60405180910390fd5b600060026000868152602001908152602001600020905060008160050160003373ffffffffffffffffffffffffffffffffffffffff1673ffffffffffffffffffffffffffffffffffffffff16815260200190815260200160002090508060000160009054906101000a900460ff16611058576040517f08c379a000000000000000000000000000000000000000000000000000000000815260040161104f90611f9e565b60405180910390fd5b8060000160019054906101000a900460ff16156110aa576040517f08c379a00000000000000000000000000000000000000000000000000000000081526004016110a19061201e565b60405180910390fd5b816004018054905085106110f3576040517f08c379a00000000000000000000000000000000000000000000000000000000081526004016110ea90611fde565b60405180910390fd5b60018160000160016101000a81548160ff021916908315150217905550848160010181905550816007016000868152602001908152602001600020600081548092919061113f906123b0565b91905055507f2acce567deca3aabf56327adbb4524bd5318936eaefa69e3a5208ffda0cfec0986338760405161117793929190612082565b60405180910390a1505050505050565b60008054906101000a900473ffffffffffffffffffffffffffffffffffffffff1673ffffffffffffffffffffffffffffffffffffffff163373ffffffffffffffffffffffffffffffffffffffff1614611215576040517f08c379a000000000000000000000000000000000000000000000000000000000815260040161120c90611ffe565b60405180910390fd5b818310611257576040517f08c379a000000000000000000000000000000000000000000000000000000000815260040161124e90611e7e565b60405180910390fd5b600081511161129b576040517f08c379a000000000000000000000000000000000000000000000000000000000815260040161129290611f5e565b60405180910390fd5b600160008154809291906112ae906123b0565b9190505550600060026000600154815260200190815260200160002090506001548160000181905550848160010190805190602001906112ef9291906113a2565b5083816002018190555082816003018190555060018160080160006101000a81548160ff02191690831515021790555081816004019080519060200190611337929190611428565b507fe7a0aae5d733e07e246dea86213a1ac1b0aa8554bde889bb75c12752f44e53d960015486868660405161136f94939291906120e9565b60405180910390a15050505050565b60008054906101000a900473ffffffffffffffffffffffffffffffffffffffff1681565b8280546113ae9061237e565b90600052602060002090601f0160209004810192826113d05760008555611417565b82601f106113e957805160ff1916838001178555611417565b82800160010185558215611417579182015b828111156114165782518255916020019190600101906113fb565b5b5090506114249190611488565b5090565b828054828255906000526020600020908101928215611477579160200282015b828111156114765782518290805190602001906114669291906113a2565b5091602001919060010190611448565b5b50905061148491906114a5565b5090565b5b808211156114a1576000816000905550600101611489565b5090565b5b808211156114c557600081816114bc91906114c9565b506001016114a6565b5090565b5080546114d59061237e565b6000825580601f106114e75750611506565b601f0160209004906000526020600020908101906115059190611488565b5b50565b600061151c611517846121c0565b61218f565b9050808382526020820190508260005b8581101561155c578135850161154288826115e3565b84526020840193506020830192505060018101905061152c565b5050509392505050565b6000611579611574846121ec565b61218f565b90508281526020810184848401111561159157600080fd5b61159c84828561233c565b509392505050565b6000813590506115b381612497565b92915050565b600082601f8301126115ca57600080fd5b81356115da848260208601611509565b91505092915050565b600082601f8301126115f457600080fd5b8135611604848260208601611566565b91505092915050565b60008135905061161c816124ae565b92915050565b6000806000806080858703121561163857600080fd5b600085013567ffffffffffffffff81111561165257600080fd5b61165e878288016115e3565b945050602061166f8782880161160d565b93505060406116808782880161160d565b925050606085013567ffffffffffffffff81111561169d57600080fd5b6116a9878288016115b9565b91505092959194509250565b6000602082840312156116c757600080fd5b60006116d58482850161160d565b91505092915050565b600080604083850312156116f157600080fd5b60006116ff8582860161160d565b9250506020611710858286016115a4565b9150509250929050565b6000806040838503121561172d57600080fd5b600061173b8582860161160d565b925050602061174c8582860161160d565b9150509250929050565b6000611762838361179a565b60208301905092915050565b600061177a83836118f8565b905092915050565b600061178e8383611da8565b60208301905092915050565b6117a3816122f4565b82525050565b6117b2816122f4565b82525050565b60006117c38261224c565b6117cd818561229f565b93506117d88361221c565b8060005b838110156118095781516117f08882611756565b97506117fb83612278565b9250506001810190506117dc565b5085935050505092915050565b600061182182612257565b61182b81856122b0565b93508360208202850161183d8561222c565b8060005b85811015611879578484038952815161185a858261176e565b945061186583612285565b925060208a01995050600181019050611841565b50829750879550505050505092915050565b600061189682612262565b6118a081856122c1565b93506118ab8361223c565b8060005b838110156118dc5781516118c38882611782565b97506118ce83612292565b9250506001810190506118af565b5085935050505092915050565b6118f281612306565b82525050565b60006119038261226d565b61190d81856122d2565b935061191d81856020860161234b565b61192681612486565b840191505092915050565b600061193c8261226d565b61194681856122e3565b935061195681856020860161234b565b61195f81612486565b840191505092915050565b60006119776022836122e3565b91507f53746172742074696d65206d757374206265206265666f726520656e6420746960008301527f6d650000000000000000000000000000000000000000000000000000000000006020830152604082019050919050565b60006119dd602c836122e3565b91507f456c656374696f6e206973206e6f742077697468696e2074686520616374697660008301527f652074696d65206672616d6500000000000000000000000000000000000000006020830152604082019050919050565b6000611a436018836122e3565b91507f456c656374696f6e206973207374696c6c2061637469766500000000000000006000830152602082019050919050565b6000611a836019836122e3565b91507f456c656374696f6e20697320616c726561647920656e646564000000000000006000830152602082019050919050565b6000611ac36036836122e3565b91507f5468697320766f746572206973206e6f74207265676973746572656420696e2060008301527f7468652073706563696669656420656c656374696f6e000000000000000000006020830152604082019050919050565b6000611b296017836122e3565b91507f456c656374696f6e20646f6573206e6f742065786973740000000000000000006000830152602082019050919050565b6000611b69601a836122e3565b91507f456c656374696f6e20686173206e6f7420656e646564207965740000000000006000830152602082019050919050565b6000611ba96020836122e3565b91507f4d7573742068617665206174206c65617374206f6e652063616e6469646174656000830152602082019050919050565b6000611be9601b836122e3565b91507f566f74657220697320616c7265616479207265676973746572656400000000006000830152602082019050919050565b6000611c29602f836122e3565b91507f596f7520617265206e6f74207265676973746572656420746f20766f7465206960008301527f6e207468697320656c656374696f6e00000000000000000000000000000000006020830152604082019050919050565b6000611c8f6016836122e3565b91507f456c656374696f6e206973206e6f7420616374697665000000000000000000006000830152602082019050919050565b6000611ccf6014836122e3565b91507f496e76616c69642063616e6469646174652049440000000000000000000000006000830152602082019050919050565b6000611d0f6021836122e3565b91507f4f6e6c792061646d696e2063616e2063616c6c20746869732066756e6374696f60008301527f6e000000000000000000000000000000000000000000000000000000000000006020830152604082019050919050565b6000611d756016836122e3565b91507f596f75206861766520616c726561647920766f746564000000000000000000006000830152602082019050919050565b611db181612332565b82525050565b611dc081612332565b82525050565b6000602082019050611ddb60008301846117a9565b92915050565b60006020820190508181036000830152611dfb81846117b8565b905092915050565b60006020820190508181036000830152611e1d8184611816565b905092915050565b60006020820190508181036000830152611e3f818461188b565b905092915050565b6000606082019050611e5c60008301866118e9565b611e6960208301856118e9565b611e766040830184611db7565b949350505050565b60006020820190508181036000830152611e978161196a565b9050919050565b60006020820190508181036000830152611eb7816119d0565b9050919050565b60006020820190508181036000830152611ed781611a36565b9050919050565b60006020820190508181036000830152611ef781611a76565b9050919050565b60006020820190508181036000830152611f1781611ab6565b9050919050565b60006020820190508181036000830152611f3781611b1c565b9050919050565b60006020820190508181036000830152611f5781611b5c565b9050919050565b60006020820190508181036000830152611f7781611b9c565b9050919050565b60006020820190508181036000830152611f9781611bdc565b9050919050565b60006020820190508181036000830152611fb781611c1c565b9050919050565b60006020820190508181036000830152611fd781611c82565b9050919050565b60006020820190508181036000830152611ff781611cc2565b9050919050565b6000602082019050818103600083015261201781611d02565b9050919050565b6000602082019050818103600083015261203781611d68565b9050919050565b60006020820190506120536000830184611db7565b92915050565b600060408201905061206e6000830185611db7565b61207b60208301846117a9565b9392505050565b60006060820190506120976000830186611db7565b6120a460208301856117a9565b6120b16040830184611db7565b949350505050565b60006040820190506120ce6000830185611db7565b81810360208301526120e0818461188b565b90509392505050565b60006080820190506120fe6000830187611db7565b81810360208301526121108186611931565b905061211f6040830185611db7565b61212c6060830184611db7565b95945050505050565b600060a08201905061214a6000830188611db7565b818103602083015261215c8187611931565b905061216b6040830186611db7565b6121786060830185611db7565b61218560808301846118e9565b9695505050505050565b6000604051905081810181811067ffffffffffffffff821117156121b6576121b5612457565b5b8060405250919050565b600067ffffffffffffffff8211156121db576121da612457565b5b602082029050602081019050919050565b600067ffffffffffffffff82111561220757612206612457565b5b601f19601f8301169050602081019050919050565b6000819050602082019050919050565b6000819050602082019050919050565b6000819050602082019050919050565b600081519050919050565b600081519050919050565b600081519050919050565b600081519050919050565b6000602082019050919050565b6000602082019050919050565b6000602082019050919050565b600082825260208201905092915050565b600082825260208201905092915050565b600082825260208201905092915050565b600082825260208201905092915050565b600082825260208201905092915050565b60006122ff82612312565b9050919050565b60008115159050919050565b600073ffffffffffffffffffffffffffffffffffffffff82169050919050565b6000819050919050565b82818337600083830152505050565b60005b8381101561236957808201518184015260208101905061234e565b83811115612378576000848401525b50505050565b6000600282049050600182168061239657607f821691505b602082108114156123aa576123a9612428565b5b50919050565b60006123bb82612332565b91507fffffffffffffffffffffffffffffffffffffffffffffffffffffffffffffffff8214156123ee576123ed6123f9565b5b600182019050919050565b7f4e487b7100000000000000000000000000000000000000000000000000000000600052601160045260246000fd5b7f4e487b7100000000000000000000000000000000000000000000000000000000600052602260045260246000fd5b7f4e487b7100000000000000000000000000000000000000000000000000000000600052604160045260246000fd5b6000601f19601f8301169050919050565b6124a0816122f4565b81146124ab57600080fd5b50565b6124b781612332565b81146124c257600080fd5b5056fea26469706673582212200627b41f1a21af74d4dc3c7491aac3c2a116bb85eec2df16848a45b05736b10164736f6c63430008000033",
  "linkReferences": {},
  "deployedLinkReferences": {}
}