{
  "_format": "hh-sol-artifact-1",
  "contractName": "BlockchainVoting",
  "sourceName": "contracts/BlockchainVoting.sol",
  "abi": [
    {
      "inputs": [],
      "stateMutability": "nonpayable",
      "type": "constructor"
    },
    {
      "anonymous": false,
      "inputs": [
        {
          "indexed": false,
          "internalType": "uint256",
          "name": "electionId",
          "type": "uint256"
        },
        {
          "indexed": false,
          "internalType": "string",
          "name": "name",
          "type": "string"
        },
        {
          "indexed": false,
          "internalType": "uint256",
          "name": "startTime",
          "type": "uint256"
        },
        {
          "indexed": false,
          "internalType": "uint256",
          "name": "endTime",
          "type": "uint256"
        }
      ],
      "name": "ElectionCreated",
      "type": "event"
    },
    {
      "anonymous": false,
      "inputs": [
        {
          "indexed": false,
          "internalType": "uint256",
          "name": "electionId",
          "type": "uint256"
        },
        {
          "indexed": false,
          "internalType": "uint256[]",
          "name": "results",
          "type": "uint256[]"
        }
      ],
      "name": "ElectionEnded",
      "type": "event"
    },
    {
      "anonymous": false,
      "inputs": [
        {
          "indexed": false,
          "internalType": "uint256",
          "name": "electionId",
          "type": "uint256"
        },
        {
          "indexed": false,
          "internalType": "address",
          "name": "voter",
          "type": "address"
        },
        {
          "indexed": false,
          "internalType": "uint256",
          "name": "candidateId",
          "type": "uint256"
        }
      ],
      "name": "VoteCast",
      "type": "event"
    },
    {
      "anonymous": false,
      "inputs": [
        {
          "indexed": false,
          "internalType": "uint256",
          "name": "electionId",
          "type": "uint256"
        },
        {
          "indexed": false,
          "internalType": "address",
          "name": "voter",
          "type": "address"
        }
      ],
      "name": "VoterRegistered",
      "type": "event"
    },
    {
      "inputs": [],
      "name": "admin",
      "outputs": [
        {
          "internalType": "address",
          "name": "",
          "type": "address"
        }
      ],
      "stateMutability": "view",
      "type": "function"
    },
    {
      "inputs": [
        {
          "internalType": "string",
          "name": "name",
          "type": "string"
        },
        {
          "internalType": "uint256",
          "name": "startTime",
          "type": "uint256"
        },
        {
          "internalType": "uint256",
          "name": "endTime",
          "type": "uint256"
        },
        {
          "internalType": "string[]",
          "name": "candidates",
          "type": "string[]"
        }
      ],
      "name": "createElection",
      "outputs": [],
      "stateMutability": "nonpayable",
      "type": "function"
    },
    {
      "inputs": [],
      "name": "electionCounter",
      "outputs": [
        {
          "internalType": "uint256",
          "name": "",
          "type": "uint256"
        }
      ],
      "stateMutability": "view",
      "type": "function"
    },
    {
      "inputs": [
        {
          "internalType": "uint256",
          "name": "",
          "type": "uint256"
        }
      ],
      "name": "elections",
      "outputs": [
        {
          "internalType": "uint256",
          "name": "id",
          "type": "uint256"
        },
        {
          "internalType": "string",
          "name": "name",
          "type": "string"
        },
        {
          "internalType": "uint256",
          "name": "startTime",
          "type": "uint256"
        },
        {
          "internalType": "uint256",
          "name": "endTime",
          "type": "uint256"
        },
        {
          "internalType": "bool",
          "name": "isActive",
          "type": "bool"
        }
      ],
      "stateMutability": "view",
      "type": "function"
    },
    {
      "inputs": [
        {
          "internalType": "uint256",
          "name": "electionId",
          "type": "uint256"
        }
      ],
      "name": "endElection",
      "outputs": [],
      "stateMutability": "nonpayable",
      "type": "function"
    },
    {
      "inputs": [
        {
          "internalType": "uint256",
          "name": "electionId",
          "type": "uint256"
        }
      ],
      "name": "getCandidates",
      "outputs": [
        {
          "internalType": "string[]",
          "name": "",
          "type": "string[]"
        }
      ],
      "stateMutability": "view",
      "type": "function"
    },
    {
      "inputs": [
        {
          "internalType": "uint256",
          "name": "electionId",
          "type": "uint256"
        }
      ],
      "name": "getResults",
      "outputs": [
        {
          "internalType": "uint256[]",
          "name": "",
          "type": "uint256[]"
        }
      ],
      "stateMutability": "view",
      "type": "function"
    },
    {
      "inputs": [
        {
          "internalType": "uint256",
          "name": "electionId",
          "type": "uint256"
        },
        {
          "internalType": "address",
          "name": "voter",
          "type": "address"
        }
      ],
      "name": "registerVoter",
      "outputs": [],
      "stateMutability": "nonpayable",
      "type": "function"
    },
    {
      "inputs": [
        {
          "internalType": "uint256",
          "name": "electionId",
          "type": "uint256"
        },
        {
          "internalType": "uint256",
          "name": "candidateId",
          "type": "uint256"
        }
      ],
      "name": "vote",
      "outputs": [],
      "stateMutability": "nonpayable",
      "type": "function"
    }
  ],
  "bytecode": "0x608060405234801561001057600080fd5b50336000806101000a81548173ffffffffffffffffffffffffffffffffffffffff021916908373ffffffffffffffffffffffffffffffffffffffff160217905550612005806100606000396000f3fe608060405234801561001057600080fd5b50600436106100935760003560e01c806394c790bb1161006657806394c790bb1461014a5780639c98bcbb14610166578063b384abef14610182578063bc2790471461019e578063f851a440146101ba57610093565b80633e39a7a5146100985780635e6fef01146100c857806361e37417146100fc57806381a60c0d1461011a575b600080fd5b6100b260048036038101906100ad919061135c565b6101d8565b6040516100bf919061199d565b60405180910390f35b6100e260048036038101906100dd919061135c565b61032f565b6040516100f3959493929190611c78565b60405180910390f35b6101046103fa565b6040516101119190611b81565b60405180910390f35b610134600480360381019061012f919061135c565b610400565b60405161014191906119bf565b60405180910390f35b610164600480360381019061015f9190611385565b6105d8565b005b610180600480360381019061017b919061135c565b610812565b005b61019c600480360381019061019791906113c1565b610b0c565b005b6101b860048036038101906101b391906112c9565b610e2e565b005b6101c2611025565b6040516101cf9190611982565b60405180910390f35b60608160015481111580156102025750806002600083815260200190815260200160002060000154145b610241576040517f08c379a000000000000000000000000000000000000000000000000000000000815260040161023890611a61565b60405180910390fd5b60026000848152602001908152602001600020600401805480602002602001604051908101604052809291908181526020016000905b8282101561032357838290600052602060002001805461029690611e88565b80601f01602080910402602001604051908101604052809291908181526020018280546102c290611e88565b801561030f5780601f106102e45761010080835404028352916020019161030f565b820191906000526020600020905b8154815290600101906020018083116102f257829003601f168201915b505050505081526020019060010190610277565b50505050915050919050565b600260205280600052604060002060009150905080600001549080600101805461035890611e88565b80601f016020809104026020016040519081016040528092919081815260200182805461038490611e88565b80156103d15780601f106103a6576101008083540402835291602001916103d1565b820191906000526020600020905b8154815290600101906020018083116103b457829003601f168201915b5050505050908060020154908060030154908060070160009054906101000a900460ff16905085565b60015481565b606081600154811115801561042a5750806002600083815260200190815260200160002060000154145b610469576040517f08c379a000000000000000000000000000000000000000000000000000000000815260040161046090611a61565b60405180910390fd5b60006002600085815260200190815260200160002090508060070160009054906101000a900460ff16156104d2576040517f08c379a00000000000000000000000000000000000000000000000000000000081526004016104c990611a21565b60405180910390fd5b6000816004018054905067ffffffffffffffff81111561051b577f4e487b7100000000000000000000000000000000000000000000000000000000600052604160045260246000fd5b6040519080825280602002602001820160405280156105495781602001602082028036833780820191505090505b50905060005b82600401805490508110156105cc57826006016000828152602001908152602001600020548282815181106105ad577f4e487b7100000000000000000000000000000000000000000000000000000000600052603260045260246000fd5b60200260200101818152505080806105c490611eba565b91505061054f565b50809350505050919050565b60008054906101000a900473ffffffffffffffffffffffffffffffffffffffff1673ffffffffffffffffffffffffffffffffffffffff163373ffffffffffffffffffffffffffffffffffffffff1614610666576040517f08c379a000000000000000000000000000000000000000000000000000000000815260040161065d90611b41565b60405180910390fd5b81600154811115801561068e5750806002600083815260200190815260200160002060000154145b6106cd576040517f08c379a00000000000000000000000000000000000000000000000000000000081526004016106c490611a61565b60405180910390fd5b60006002600085815260200190815260200160002090508060050160008473ffffffffffffffffffffffffffffffffffffffff1673ffffffffffffffffffffffffffffffffffffffff16815260200190815260200160002060000160009054906101000a900460ff1615610776576040517f08c379a000000000000000000000000000000000000000000000000000000000815260040161076d90611ac1565b60405180910390fd5b60018160050160008573ffffffffffffffffffffffffffffffffffffffff1673ffffffffffffffffffffffffffffffffffffffff16815260200190815260200160002060000160006101000a81548160ff0219169083151502179055507ff45b8429c36d478f9a6d081c4811a819b98aa5b608588bed9d406405cf2824738484604051610804929190611b9c565b60405180910390a150505050565b60008054906101000a900473ffffffffffffffffffffffffffffffffffffffff1673ffffffffffffffffffffffffffffffffffffffff163373ffffffffffffffffffffffffffffffffffffffff16146108a0576040517f08c379a000000000000000000000000000000000000000000000000000000000815260040161089790611b41565b60405180910390fd5b8060015481111580156108c85750806002600083815260200190815260200160002060000154145b610907576040517f08c379a00000000000000000000000000000000000000000000000000000000081526004016108fe90611a61565b60405180910390fd5b60006002600084815260200190815260200160002090508060070160009054906101000a900460ff1661096f576040517f08c379a000000000000000000000000000000000000000000000000000000000815260040161096690611a41565b60405180910390fd5b806003015442116109b5576040517f08c379a00000000000000000000000000000000000000000000000000000000081526004016109ac90611a81565b60405180910390fd5b60008160070160006101000a81548160ff0219169083151502179055506000816004018054905067ffffffffffffffff811115610a1b577f4e487b7100000000000000000000000000000000000000000000000000000000600052604160045260246000fd5b604051908082528060200260200182016040528015610a495781602001602082028036833780820191505090505b50905060005b8260040180549050811015610acc5782600601600082815260200190815260200160002054828281518110610aad577f4e487b7100000000000000000000000000000000000000000000000000000000600052603260045260246000fd5b6020026020010181815250508080610ac490611eba565b915050610a4f565b507f35a1c053de6c85672294c1aaaea8617367a5f9c313f8543d4552374f783c6ff08482604051610afe929190611bfc565b60405180910390a150505050565b816001548111158015610b345750806002600083815260200190815260200160002060000154145b610b73576040517f08c379a0000000000000000000000000000000000000000000000000000000008152600401610b6a90611a61565b60405180910390fd5b826002600082815260200190815260200160002060070160009054906101000a900460ff16610bd7576040517f08c379a0000000000000000000000000000000000000000000000000000000008152600401610bce90611b01565b60405180910390fd5b60026000828152602001908152602001600020600201544210158015610c13575060026000828152602001908152602001600020600301544211155b610c52576040517f08c379a0000000000000000000000000000000000000000000000000000000008152600401610c4990611a01565b60405180910390fd5b600060026000868152602001908152602001600020905060008160050160003373ffffffffffffffffffffffffffffffffffffffff1673ffffffffffffffffffffffffffffffffffffffff16815260200190815260200160002090508060000160009054906101000a900460ff16610cff576040517f08c379a0000000000000000000000000000000000000000000000000000000008152600401610cf690611ae1565b60405180910390fd5b8060000160019054906101000a900460ff1615610d51576040517f08c379a0000000000000000000000000000000000000000000000000000000008152600401610d4890611b61565b60405180910390fd5b81600401805490508510610d9a576040517f08c379a0000000000000000000000000000000000000000000000000000000008152600401610d9190611b21565b60405180910390fd5b60018160000160016101000a81548160ff0219169083151502179055508481600101819055508160060160008681526020019081526020016000206000815480929190610de690611eba565b91905055507f2acce567deca3aabf56327adbb4524bd5318936eaefa69e3a5208ffda0cfec09863387604051610e1e93929190611bc5565b60405180910390a1505050505050565b60008054906101000a900473ffffffffffffffffffffffffffffffffffffffff1673ffffffffffffffffffffffffffffffffffffffff163373ffffffffffffffffffffffffffffffffffffffff1614610ebc576040517f08c379a0000000000000000000000000000000000000000000000000000000008152600401610eb390611b41565b60405180910390fd5b818310610efe576040517f08c379a0000000000000000000000000000000000000000000000000000000008152600401610ef5906119e1565b60405180910390fd5b6000815111610f42576040517f08c379a0000000000000000000000000000000000000000000000000000000008152600401610f3990611aa1565b60405180910390fd5b60016000815480929190610f5590611eba565b919050555060006002600060015481526020019081526020016000209050600154816000018190555084816001019080519060200190610f96929190611049565b5083816002018190555082816003018190555060018160070160006101000a81548160ff02191690831515021790555081816004019080519060200190610fde9291906110cf565b507fe7a0aae5d733e07e246dea86213a1ac1b0aa8554bde889bb75c12752f44e53d96001548686866040516110169493929190611c2c565b60405180910390a15050505050565b60008054906101000a900473ffffffffffffffffffffffffffffffffffffffff1681565b82805461105590611e88565b90600052602060002090601f01602090048101928261107757600085556110be565b82601f1061109057805160ff19168380011785556110be565b828001600101855582156110be579182015b828111156110bd5782518255916020019190600101906110a2565b5b5090506110cb919061112f565b5090565b82805482825590600052602060002090810192821561111e579160200282015b8281111561111d57825182908051906020019061110d929190611049565b50916020019190600101906110ef565b5b50905061112b919061114c565b5090565b5b80821115611148576000816000905550600101611130565b5090565b5b8082111561116c57600081816111639190611170565b5060010161114d565b5090565b50805461117c90611e88565b6000825580601f1061118e57506111ad565b601f0160209004906000526020600020908101906111ac919061112f565b5b50565b60006111c36111be84611d03565b611cd2565b9050808382526020820190508260005b8581101561120357813585016111e9888261128a565b8452602084019350602083019250506001810190506111d3565b5050509392505050565b600061122061121b84611d2f565b611cd2565b90508281526020810184848401111561123857600080fd5b611243848285611e46565b509392505050565b60008135905061125a81611fa1565b92915050565b600082601f83011261127157600080fd5b81356112818482602086016111b0565b91505092915050565b600082601f83011261129b57600080fd5b81356112ab84826020860161120d565b91505092915050565b6000813590506112c381611fb8565b92915050565b600080600080608085870312156112df57600080fd5b600085013567ffffffffffffffff8111156112f957600080fd5b6113058782880161128a565b9450506020611316878288016112b4565b9350506040611327878288016112b4565b925050606085013567ffffffffffffffff81111561134457600080fd5b61135087828801611260565b91505092959194509250565b60006020828403121561136e57600080fd5b600061137c848285016112b4565b91505092915050565b6000806040838503121561139857600080fd5b60006113a6858286016112b4565b92505060206113b78582860161124b565b9150509250929050565b600080604083850312156113d457600080fd5b60006113e2858286016112b4565b92505060206113f3858286016112b4565b9150509250929050565b6000611409838361151a565b905092915050565b600061141d8383611964565b60208301905092915050565b61143281611dfe565b82525050565b600061144382611d7f565b61144d8185611dba565b93508360208202850161145f85611d5f565b8060005b8581101561149b578484038952815161147c85826113fd565b945061148783611da0565b925060208a01995050600181019050611463565b50829750879550505050505092915050565b60006114b882611d8a565b6114c28185611dcb565b93506114cd83611d6f565b8060005b838110156114fe5781516114e58882611411565b97506114f083611dad565b9250506001810190506114d1565b5085935050505092915050565b61151481611e10565b82525050565b600061152582611d95565b61152f8185611ddc565b935061153f818560208601611e55565b61154881611f90565b840191505092915050565b600061155e82611d95565b6115688185611ded565b9350611578818560208601611e55565b61158181611f90565b840191505092915050565b6000611599602283611ded565b91507f53746172742074696d65206d757374206265206265666f726520656e6420746960008301527f6d650000000000000000000000000000000000000000000000000000000000006020830152604082019050919050565b60006115ff602c83611ded565b91507f456c656374696f6e206973206e6f742077697468696e2074686520616374697660008301527f652074696d65206672616d6500000000000000000000000000000000000000006020830152604082019050919050565b6000611665601883611ded565b91507f456c656374696f6e206973207374696c6c2061637469766500000000000000006000830152602082019050919050565b60006116a5601983611ded565b91507f456c656374696f6e20697320616c726561647920656e646564000000000000006000830152602082019050919050565b60006116e5601783611ded565b91507f456c656374696f6e20646f6573206e6f742065786973740000000000000000006000830152602082019050919050565b6000611725601a83611ded565b91507f456c656374696f6e20686173206e6f7420656e646564207965740000000000006000830152602082019050919050565b6000611765602083611ded565b91507f4d7573742068617665206174206c65617374206f6e652063616e6469646174656000830152602082019050919050565b60006117a5601b83611ded565b91507f566f74657220697320616c7265616479207265676973746572656400000000006000830152602082019050919050565b60006117e5602f83611ded565b91507f596f7520617265206e6f74207265676973746572656420746f20766f7465206960008301527f6e207468697320656c656374696f6e00000000000000000000000000000000006020830152604082019050919050565b600061184b601683611ded565b91507f456c656374696f6e206973206e6f7420616374697665000000000000000000006000830152602082019050919050565b600061188b601483611ded565b91507f496e76616c69642063616e6469646174652049440000000000000000000000006000830152602082019050919050565b60006118cb602183611ded565b91507f4f6e6c792061646d696e2063616e2063616c6c20746869732066756e6374696f60008301527f6e000000000000000000000000000000000000000000000000000000000000006020830152604082019050919050565b6000611931601683611ded565b91507f596f75206861766520616c726561647920766f746564000000000000000000006000830152602082019050919050565b61196d81611e3c565b82525050565b61197c81611e3c565b82525050565b60006020820190506119976000830184611429565b92915050565b600060208201905081810360008301526119b78184611438565b905092915050565b600060208201905081810360008301526119d981846114ad565b905092915050565b600060208201905081810360008301526119fa8161158c565b9050919050565b60006020820190508181036000830152611a1a816115f2565b9050919050565b60006020820190508181036000830152611a3a81611658565b9050919050565b60006020820190508181036000830152611a5a81611698565b9050919050565b60006020820190508181036000830152611a7a816116d8565b9050919050565b60006020820190508181036000830152611a9a81611718565b9050919050565b60006020820190508181036000830152611aba81611758565b9050919050565b60006020820190508181036000830152611ada81611798565b9050919050565b60006020820190508181036000830152611afa816117d8565b9050919050565b60006020820190508181036000830152611b1a8161183e565b9050919050565b60006020820190508181036000830152611b3a8161187e565b9050919050565b60006020820190508181036000830152611b5a816118be565b9050919050565b60006020820190508181036000830152611b7a81611924565b9050919050565b6000602082019050611b966000830184611973565b92915050565b6000604082019050611bb16000830185611973565b611bbe6020830184611429565b9392505050565b6000606082019050611bda6000830186611973565b611be76020830185611429565b611bf46040830184611973565b949350505050565b6000604082019050611c116000830185611973565b8181036020830152611c2381846114ad565b90509392505050565b6000608082019050611c416000830187611973565b8181036020830152611c538186611553565b9050611c626040830185611973565b611c6f6060830184611973565b95945050505050565b600060a082019050611c8d6000830188611973565b8181036020830152611c9f8187611553565b9050611cae6040830186611973565b611cbb6060830185611973565b611cc8608083018461150b565b9695505050505050565b6000604051905081810181811067ffffffffffffffff82111715611cf957611cf8611f61565b5b8060405250919050565b600067ffffffffffffffff821115611d1e57611d1d611f61565b5b602082029050602081019050919050565b600067ffffffffffffffff821115611d4a57611d49611f61565b5b601f19601f8301169050602081019050919050565b6000819050602082019050919050565b6000819050602082019050919050565b600081519050919050565b600081519050919050565b600081519050919050565b6000602082019050919050565b6000602082019050919050565b600082825260208201905092915050565b600082825260208201905092915050565b600082825260208201905092915050565b600082825260208201905092915050565b6000611e0982611e1c565b9050919050565b60008115159050919050565b600073ffffffffffffffffffffffffffffffffffffffff82169050919050565b6000819050919050565b82818337600083830152505050565b60005b83811015611e73578082015181840152602081019050611e58565b83811115611e82576000848401525b50505050565b60006002820490506001821680611ea057607f821691505b60208210811415611eb457611eb3611f32565b5b50919050565b6000611ec582611e3c565b91507fffffffffffffffffffffffffffffffffffffffffffffffffffffffffffffffff821415611ef857611ef7611f03565b5b600182019050919050565b7f4e487b7100000000000000000000000000000000000000000000000000000000600052601160045260246000fd5b7f4e487b7100000000000000000000000000000000000000000000000000000000600052602260045260246000fd5b7f4e487b7100000000000000000000000000000000000000000000000000000000600052604160045260246000fd5b6000601f19601f8301169050919050565b611faa81611dfe565b8114611fb557600080fd5b50565b611fc181611e3c565b8114611fcc57600080fd5b5056fea2646970667358221220c12fe55f08089565395b7476bbcb5845fc0101d3fd4839698000b7ae4260da7964736f6c63430008000033",
  "linkReferences": {},
  "deployedLinkReferences": {}
}